:040000006F2080638A
:100004000000000000000000D2120000D412000022
:100014000000000036260000000000000000000080
:100024003626000036260000000000000000000014
:100034003626000000000000362600000000000004
:100044003626000036260000362600000000000098
:10005400B4200000362600003626000036260000B4
:10006400362600003626000036260000362600001C
:100074003626000036260000841400008C1600008A
:1000840036260000A61F000036260000B01D000022
:1000940036260000362600003626000036260000EC
:1000A40036260000362600003626000036260000DC
:1000B40036260000362600003626000036260000CC
:1000C40036260000EC080000362600003626000024
:1000D4003626000036260000362600000000000008
:1000E400000000000000000000000000000000000C
:0C00F40000000000000000000000000000
:10010000397101436EC619A0397141536AC866CA74
:1001100062CC5ECE19A0397101535AD056D252D456
:100120004ED64AD826DA22DC06DE330161408282CE
:1001300041114AC026C222C406C68282B24D410184
:10014000024D924C224CB24B4101024B924A224A40
:10015000B2494101024992442244B24041018280A5
:100160003D432A876373C3029377F700BDEFADE584
:10017000937606FF3D8ABA960CC34CC30CC74CC796
:100180004107E36BD7FE11E28280B306C3408A06C3
:100190009702000096966780A6002307B700A30683
:1001A000B7002306B700A305B7002305B700A304D3
:1001B000B7002304B700A303B7002303B700A302CB
:1001C000B7002302B700A301B7002301B700A300C3
:1001D000B7002300B700828093F5F50F9396850052
:1001E000D58D93960501D58D61B79396270097021B
:1001F000000096968682E78086FA9680C1171D8F4A
:100200003E96E374C3F8A5B7EFF29FF22C21930753
:10021000A00A30316395F508930750056311F6087D
:100220001C2105466397C7021C3109476381E70219
:100230006365F700814581CB31BFF11793F7F70F65
:100240008945E36BF7FE0D45EF109051F5B78545F5
:10025000DDBF89466396D7000831EF20A006E9BFCD
:100260000D476399E7001C31E1FB81450945EF101B
:100270001052D9B79145E391B7FC1C31638DC7008B
:1002800081CB638CD700E399E7FA91452945C5B73F
:100290008545294555BF8945EDBF9145DDBF3745AA
:1002A00000001305C54CEF20106179B793171500B6
:1002B000898BAE97239AF180B70700209387C701F7
:1002C0009837937615008CA7719B558F98B7058149
:1002D0000947B1476363A70091472384F180828077
:1002E000894763EFA700B70700200A059387C70176
:1002F000AA9788339C232205137505303E9582808A
:100300001305C0128280B77702409A231367270033
:100310009AA39A2342074183759B420741839AA37C
:10032000962319672107558F9AA31387818C42075B
:1003300041839AABD8231377E70FD8A3130770072D
:10034000BAA3D82313672700D8A3B7E700E037077D
:10035000020023A2E71082801387C18A1C2F93F723
:10036000F7FC93E707031CAFB77702401307400A77
:10037000DAA7FAA782809387C18A982F1377F7FCB0
:1003800098AFB77702401307200ADAA7FAA782804E
:10039000EFF21FDAEF1090021384C18A11E9E13FF6
:1003A0001E2C7D776D17F98F232004001EAC5DB3E2
:1003B000930700F85CA81E2C7D77130707FBF98FC5
:1003C00093E787041EAC23040400230504002317CD
:1003D00004002319040023200400BD3F2D37C1BFB2
:1003E000EFF21FD54111B16705443EC24C00914761
:1003F0003715014022C43EC6EF20203637070140A2
:100400001C4F714693E707301CCFB7770240214756
:100410009AA3715798B781451385C18A9133138583
:10042000C18811469385418000A10505EF20903DCC
:100430008537D13D410139BBEFF29FCF83D7418C46
:1004400037740240898B638607145E24898BC1CB85
:1004500083C7D18305476390E7045E240945C2073B
:10046000C18393F7E7F1C207C1835EA45E2493E7DB
:1004700007045EA4EF2070264A245E240589C20783
:10048000C18393F7E7F1C207C1835EA45E2493E7BB
:10049000070A5EA4C1B109476391E7047E240945B8
:1004A000C207C18393F7E7F1C207C1837EA47E240C
:1004B00093E707047EA4EF2050227A247E24C2070B
:1004C000C18393F7E7F1C207C1837EA47E2493E73B
:1004D000070A7EA493771700DDE7014565BF5E2418
:1004E0000945C207C18393F7E7F1C207C1835EA440
:1004F0005E2493E707045EA4EF20301E46245E24AA
:1005000009458588C207C18393F7E7F1C207C18314
:100510005EA45E2493E7070A5EA47E24C207C1831B
:1005200093F7E7F1C207C1837EA47E2493E7070413
:100530007EA4EF20901A7E247A24858B4207418383
:100540001377E7F1420741837AA47A241367070AF5
:100550007AA43717014018479316170163D4060091
:1005600093E404043717014018479316070163D436
:10057000060093E70704377702401A23118B11C74F
:1005800093F70704B9FB094531B713C50404198172
:1005900011B75E240945C207C18393F7E7F1C2078B
:1005A000C1835EA45E2493E707045EA4EF20F012EB
:1005B00046245E2409458588C207C18393F7E7F185
:1005C000C207C1835EA45E2493E7070A5EA4EF20FE
:1005D000D0105E24858B99C393E48400B717014043
:1005E0009C47139717016354070093E40404377979
:1005F00002408357E9000945C207C18393F7E7F139
:10060000C207C1832317F9008357E90093E7070462
:100610002317F900EF20700C0354E9008357E90019
:1006200009450588C207C18393F7E7F1C207C18373
:100630002317F9008357E90093E7070A2317F90006
:10064000EF20B0098357E900858B99C313648400B8
:10065000B71701409C4713970701635407001364C1
:100660000404B7770240DE27898B89CB058813F510
:100670001400E30104E201D9054529BD93F7840480
:1006800021470145639BE70093770404054591E703
:10069000137594007D151335150013748404A14758
:1006A000E31AF4DEE31B05E293F794000547639336
:1006B000E700094593F40404E38E04DCE9B5EFF2A6
:1006C0003FA79384C18A9E2C4111898BADC3AD3362
:1006D00009C5238504004101B5BCBC241147850729
:1006E00093F7F70F6364F700BCA4F5B79E2C23853E
:1006F000040013F7D7FF9AAC918BF1FF054480C03B
:10070000EF10103D0145EF10405B23930184938768
:1007100061859823E31187FC2380070083C75185F7
:1007200081C7EF10E04D45BFEF10C04E6DB72933C4
:100730001384C18AAA8509C93C241147850793F708
:10074000F70F6365F700BE852CA471B71E2C230537
:10075000040093E727001EAC918BB5FF2AC6EF106B
:10076000E045B24539ED377702405E27898B81E756
:100770007E27898B8DCF85471387D183B77602403B
:10078000639AF5029E22C207C183ED9BC207C18313
:100790009EA20CA389472EC61CC0EF102042B24572
:1007A0002A863745000013050539EF20D01023179E
:1007B000040015B79E2293E747009EA289471CA319
:1007C000D1BF854737770240639AF5021E23C207DF
:1007D000C183ED9BC207C1831EA3377702405E270A
:1007E000898B81E77E27898B91CF37450000894728
:1007F0001305853A1CC0EF20100C55BF1E2393E74C
:100800004700D9BF37450000AD471305C53B1CC0A5
:10081000EF20700A9387618496230567130777BBDF
:10082000E377D7F805671307E7BA9AA349B7B7770D
:1008300002409A23118B51CFFA2713670701FAA7B9
:10084000B77702401307F004C205BAA3C1818EAB8B
:100850004206D4B34182F2A3D82313671700D8A36A
:100860009837A3840700D82313672700D8A32DC186
:10087000983762076187E35D07FE983713670708BB
:1008800098B79A23118B39CBFA27420741833D9BB6
:1008900042074183FAA7B77702409A2313672700DC
:1008A0009AA39A2342074183759B420741839AA3E7
:1008B000D8231377E70FD8A31387818C420741838E
:1008C0009AAB13077007BAA3D82313672700D8A3DE
:1008D0008280DA2713670701DAA79DB7DA27420774
:1008E00041833D9B42074183DAA775B7B777024042
:1008F0009837411122C6137707022DCB98378546CA
:100900001367070298B798370D8B6311D706B62780
:100910001546637DD604BE2799461384818C639661
:10092000F6001C20FD8B6383E7047945EF20E05A35
:10093000EF10C0289307100419C19307100693867F
:10094000018403A7418C9CA21C301583058BB98BB5
:10095000D98F9CB2377702401E23A1660946D58FF6
:100960001EA38146938501840145D135B7770240A6
:1009700098376207618763500704DA27B7060200D9
:10098000420741833D9B42074183DAA7FA2742078A
:1009900041833D9B42074183FAA737E700E02322CA
:1009A000D7181387C18A162F93E6160016AF98370B
:1009B0001367070898B7B77702409837137707048B
:1009C00001CF98371367070498B7D932374500002D
:1009D0001305C54BEF20607F324441017300203086
:1009E000EFF28FF21387C18E143393D7250092074D
:1009F000D58F1CB3814793F6F70F05076390D50891
:100A00008905114993F4F50F377A0240994A7D1907
:100A10001379F90F630E0904B7E700E03707020006
:100A200023A2E718814626869385C18E05450135A8
:100A30001304A00F854B7D141374F40F69D88347FA
:100A40009A0093F70702A9C383479A0093E7070226
:100A5000A304FA008357AA006398FA0283C7818C23
:100A6000FD8B639377039387C18A9827090798A71B
:100A7000EFF07F89133519006FF08FECB306F500A6
:100A80009422850714B385BF0D45EF20004565B757
:100A90009386C18A962E2386B18E13F6860093879D
:100AA000C18E1387C18A01C693E505028CA303C8D2
:100AB000070013F606049365080419C29365080835
:100AC00018278CA3C18A398B81EA98B309C598335A
:100AD000136707F898B3828013671700FDB793F781
:100AE000350091EBF146854763E8B600EFF24FE43D
:100AF000C53D6FF02FE685473E858280EFF24FE3DC
:100B00009387818C9C339388818C014713D847004D
:100B1000137878009385818C130E000C9376F70F71
:100B20003A851316270063FA060103C35800050728
:100B300091081373030CE313C3FF238FD1821307B0
:100B4000E003D8B193F7F7F813174500D98F138551
:100B5000C1889CB114A189050505EF20A04A6FF05A
:100B60006FDF7D150A05AA959C31B821A2074207BF
:100B7000BA979821BA9719C613F7F73FA9453307D3
:100B8000B7021AA289CAA98393F7F73F1307200374
:100B9000B387E7029EA28280EFF28FD983C7E183F9
:100BA000411163E4A700AA8401ED37440000130556
:100BB0000435EF2080611305401FEF206035C5BF6D
:100BC0001384818C93172500F5171309240093854E
:100BD000C188BE9511464A85EF20C0429306E100C8
:100BE0007000CA850545B53F30872C863745000023
:100BF00013054536EF20204C89450145513D3820ED
:100C00003C309204931627008D8BD58F93F7F70F06
:100C10003CB08A071983B18BD98F93E43400914596
:100C20004A8544B05CA06D3B194711C17D4793874D
:100C3000C18A98C39A2F856623970700558F9AAF6C
:100C400041016FF02FD1EFF20FCD1387C18A362B00
:100C500083C7318441111384C18ABE9636AB1843D1
:100C60009306000263E3E60291660A07938646282C
:100C70003697184302871387618416230566130687
:100C800076BB6364D600B6971EA31E2C858B638C3F
:100C9000072603C9818C230B040045471379F9010A
:100CA0009307F9FF93F7F70F9384818C6360F748FC
:100CB00011678A0713078730BA979C4382873745A5
:100CC00000001305053DA38B0184EF200050EFF0D9
:100CD0002FEC65BF7A24BA97C207C1837EA413079D
:100CE000F07CE374F7FA5C381547850793F7F70F44
:100CF0005CB8E37EF7FCA30A04002320040071B76C
:100D00007A24BA97C207C1837EA41307301FE37EFB
:100D1000F7F61E2CED9B1EACFD471CC019A8B5456F
:100D20000145BD338145014565393335A0001605C0
:100D300008C02317040091BF1E2C9306900A014699
:100D400093E74700814505451EACD534EFF0AFDB96
:100D500023200400F9BF138661841A2285669386D6
:100D600076BB63ECE600BA97C207C1831EA20545B5
:100D7000E3FDF6F0EF00707409BF7A24BA97C2075A
:100D8000C1837EA41307F009E371F7F01E2C23172B
:100D90000400ED9B1EACB1471CC0C5BD7A24BA97B8
:100DA000C207C1837EA41307F009E370F7EE8545FF
:100DB0000145F93903C78180B14737050020A145B6
:100DC0006303F70091451305C50119393DF1374516
:100DD0000000B5471305C53D1CC0EF20003F91BF83
:100DE0007A24BA97C207C1837EA47547E37FF7E8E8
:100DF0009307000255B77A24BA97C207C1837EA42D
:100E00000947E374F7E88D450145593181450145AE
:100E1000C13EE31305F0374500001305C53FEF2041
:100E2000C03AC9471CC02317040003C5418499B7C1
:100E30007A24BA977EA4EF00B02229E59945893932
:100E400081450145713EE31905EC03C5418583D514
:100E5000218583C6818483C771858DC30546EF10C4
:100E6000603F05472385E18429472396E184374580
:100E7000000013054540EF204035D9BD0146EF1075
:100E8000603DF5B77A24856793878738E3FFE7DE0F
:100E90003745000013050541EF202033B9BD154546
:100EA000EF2000071E2C938A2400ED9B1EAC374BCD
:100EB0000000A931138AE18383470A0063F82705FC
:100EC0003745000013050536EF20203003450A00A2
:100ED0008947938901851389E18463FAA7040D4545
:100EE00065398D472380F900BC34B824A20793F7F5
:100EF0000730BA972310F900EFF0EFC01E2C23192A
:100F00000400F99B1EAC41016FF02FA44A859306A3
:100F1000E1007000D685B13134873086CA8513056B
:100F20008B420509EF2020191379F90F61B7AD3114
:100F300083470A002380F900FD178A07BE94BC305E
:100F4000B820A20793F707106DB7184023170400C5
:100F500099476315F700A5471CC079BFEF001046FD
:100F60007DD959BFEC203745000013050545EF201A
:100F700080140945EF10D079CC30374500001305B7
:100F8000854691859D890CA8EF20E0121828994686
:100F90009307F7FF93F7F70F63F5F6009307000247
:100FA00065BFF02093868184238006009305500559
:100FB000938741846314B60AEC301305A00A639F3B
:100FC000A5069424639CC60894346399B60803C6A6
:100FD0008180B1466310D606A38401840D4798A38F
:100FE0008546A38BD18488239306E1007000938506
:100FF0002400238AA184B5362C86A94737450000F2
:10100000B3D7F502130545482399F184EF20A00AD0
:101010009C201A2C2317040093F7070C938707F8DA
:1010200093B717009A071377F7FBD98F1EACBD470C
:101030001CC0D9B50546A384C18455B76390C502C9
:101040009024631DA6008C34639AC500054690A2C7
:1010500083C58180B146E381D5F8F1BF98A361B71C
:1010600083D5E18403C50185EF1060193745000081
:1010700013058549EF206015A947F9BD0545EF1017
:101080003069914501452934370500209145130504
:10109000850AB13495B50545EF1090678D4501453A
:1010A000C53A81450145F5B70545EF1070668545A0
:1010B0000545F93A37050020F14513050500D1BF74
:1010C0000545EF10F06489450545D932A1451385E2
:1010D000C180C1B70545EF10B0639145C9B7BC20C9
:1010E00093F7070CE39A07E00545EF107062BD45E2
:1010F0000145EFF0FF99BC301A2C914593F7070694
:10110000B337F0009E071377F7F7D98F1EACBC20DA
:101110001385240093E707F8BCA0A5BF0545EF1091
:10112000305F13852400EFF02F8EF9B337450000B0
:101130001305454AEF206009C1B30547238EE182BC
:1011400018219387818398A3183198B33821B8A3C5
:101150003831B8B38280EFE2BFFD8D47C14501450C
:1011600023A8F190EFF0DF92914513850191EFF004
:101170001F976FE03FFEEFE2BFFB8947C145014586
:1011800023A8F190EFF0DF90914513850191EFF0E6
:101190001F956FE03FFCEFE2BFF99147C145014564
:1011A00023A8F190EFF0DF8E914513850191EFF0C8
:1011B0001F936FE03FFAEFE2BFF793870191254756
:1011C00098A318212A84C14598B31831B8A33821AF
:1011D000B8B33831239307000145D8A3A382070091
:1011E000EFF01F8B3830342010300C2037450000D2
:1011F0001305454EEF10306CA14513850191EFF0BA
:101200001F8E6FE03FF5EFE21FF11389A184834445
:10121000090005476389E4001384A1848947638436
:10122000F4046FE09FF29389C1841385C184EF10A9
:10123000600C65D9374500001305C550EF10F078F4
:101240008947C14501452300F90023A89190EFF09B
:101250003F84914513850191EFF07F889307803E8D
:101260002390F9007DBF1385C184EF10A00811C938
:101270009387C183982311C7138581832380070037
:101280001D3F83C77185D1FF2300040059BFEFE2E2
:101290003FEA93870191214788B3ACA398A3B0B3E9
:1012A0009822C1450145D8A39832D8B3B822F8A3F3
:1012B000B832F8B3D82298A7D8322395070098B748
:1012C000EFF00FFDB14513850191EFF05F816FE005
:1012D0007FE801A001A0EFE2BFE537652200854568
:1012E0001305F5A1EF10B0186FE0DFE6EFE25FE461
:1012F0002A8415654111130555552EC6EF10700A45
:101300001375F40FEF10700AB2452E85EF10700AB6
:10131000EF10B00AEF10500B41016FE0BFE3EFE2B6
:101320003FE10545EF10300BEF10402DEF109038E6
:101330005D3737150E00EF101041EF00D00E83A57A
:1013400081813745000013050552EF10D056EF108C
:101350000037AA853745000013050553EF10B05537
:101360003745000013050554EF103066EFF04F8746
:101370009305F0021305703EEF00207E516589450C
:101380001305058825202D29EF00903C8565938560
:1013900005FA1545A13FEF105002EF00D01AEF00FB
:1013A000101EEF004071EF00B076F5B7EFE2BFD648
:1013B0000111AA892E894145854502C202C402C68F
:1013C00002C802CA02CC02CEEF10700A854537056A
:1013D0002000EF10B00B85450545EF10500937058B
:1013E0003008854513050540EF10404F37050208CA
:1013F00085455105EF10804EB7070400E1440544D0
:101400004C00371501403EC226C622C4EF10E0341E
:10141000B70708004C00371501403EC226C622C45B
:10142000EF10A033B7070040375400403ECA93077F
:101430000040FC850C08916713050440FC864EC8EB
:10144000231C2101EF106056854513050440EF1061
:10145000A06205616FE07FCF938701922380070030
:10146000ACB388B30547D8A390C723880700828010
:1014700093870192294798A3A8A3CCA3D0C7238818
:1014800007008280411126C44AC2B7540040370980
:101490000002930519001385044022C6EF10A06DC9
:1014A0001384019221CD1C2093F7F70F89C71C20CC
:1014B00029476316F7021C2037550040014685076F
:1014C00093F7F70F1CA09305400C13050540EF1090
:1014D000E0623244A24412494101730020301C20D2
:1014E0000D47E318F7FE1C2005469305400C8507C1
:1014F00093F7F70F1CA013850440D1BF9305290073
:1015000013850440EF10206739CD1C200547631474
:10151000F70089471CA01C2011476316F702954766
:101520001CA03C3005476310F702B75400408565A6
:101530009385058013850440EF10A05E85451385D3
:101540000440EF1080561C202D476314F700B1476C
:101550001CA037550040E14513050540A3020400D7
:10156000EF10E05ABDB73709000693050908138547
:101570000440EF10406051C11C200947631FF7026F
:101580005C3093F7F70F81EF0C3013850440EF10B8
:1015900020565C30850793F7F70F5CB01DBF85457B
:1015A00013850440EF10C04E8D479305F00F13854F
:1015B00004401CA0EF10C05329BF1C203147631A00
:1015C000F7002C2013850440EF108052B5471CA073
:1015D00009B71C203547E31EF7EE5C30582063F74F
:1015E000E7005C445830BA978C2345B7854513858E
:1015F0000440EF10804BFD574DBF93050904138540
:101600000440EF1040572DC11C201547E313F7ECA1
:101610005C303830E3FFE7EA032984005C3013854F
:1016200004403E99EF10004D2300A9005C3085076F
:1016300093F7F70F5CB058303C30FD17639EE7001E
:1016400085659385058013850440EF10804D8545A1
:1016500013850440EF10604558303C3093F7F70F86
:10166000E399E7E6FD57A5B7374500001305C559CF
:10167000EF10B03583D5444103D68441142037455B
:1016800000001305055BEF101023A1B5411122C620
:1016900026C437540040B704000193850440130565
:1016A0000440EF10404D09CD1305044093850440DC
:1016B000EF10604E3745000013050559EF10F0306C
:1016C0003244A244410173002030EFE27FA69387A9
:1016D00001929C2B2D4793F7F70F636EF706116766
:1016E0008A0713078754BA979C4313840192828711
:1016F000B7540040B705020013850440EF10804442
:1017000001ED89478545138504401CA8EF1040383A
:101710009307401F3EA881A09307401F3EA885471E
:101720001CA815A83E2803C731846379F7023E2818
:10173000998FC207C1833EA83E28C207C18399E39F
:10174000A9471CA8B7540040B70502001385044000
:10175000EF10403F5DD501456FE0DF9F2319040086
:10176000E1BF3E2803C731846374F7023E28998F96
:10177000C207C1833EA83E28C207C18399E3AD4793
:101780001CA81C201307F00FE317F7FC8D4749BF77
:1017900023190400CDB7374500001305855CEF1011
:1017A000D022130540064DBF0C203745000013051D
:1017B000C55DEF1050101305500679BF054569BF90
:1017C00093874193239007002392070023940700F7
:1017D000238F07008280EFE2BF9585679387773874
:1017E000AE841384419363E1A704AA8537450000C2
:1017F00013050564EF10300C8567938787385EA06A
:10180000954793952400B3C5F502374500001305AD
:1018100045676CA093F5F50FEF10F0091C3099E3C4
:101820008D471CB06FE01F930D69130909EE637CAF
:10183000A900AA853745000013058565EF10B0079C
:101840002312240175BF4AA065BF13874193183343
:101850009387419319E3054798B323920700828049
:1018600003C551938280EFE21F8B13894193834715
:1018700009008549138441936389370389CB09475C
:10188000638BE7040D47638CE7086FE01F8C371507
:1018900001400546914513050580EF10E0028D4794
:1018A0002311F90023003901CDB73E2003C731844D
:1018B000636DF7002311040089471306A400A945AE
:1018C00005451CA0EFF05FB9C9B7998FC207C18366
:1018D0003EA0C5FFD5B7D53B631035079384419330
:1018E0001309A400B7490000AC241385896285045C
:1018F000EF10607CE39A24FF37450000130505369E
:10190000EF10B00C8D471CA07C24130644018545C4
:1019100093E7470015455CA8EFF09FB5BDB7753359
:10192000631C35013745000013050563EF10F0090E
:1019300091472300F90091BF29D92300A900B1B72D
:10194000EFE20FFF938741939C331547FD1793F701
:10195000F70F6369F70411678A0713078757BA9768
:101960009C431384419382877C241306440185455C
:1019700093E7470015455CA8EFF09FAF89471CB07F
:1019800015A0EFF09FD485476310F502374500009E
:1019900013050563EF107003A30004002312040075
:1019A000231404006FE00FFB75DD08B0E5BF5E2077
:1019B0007D77130747D5BA977820C207C18358A807
:1019C0003834D146130644011367270058B813076B
:1019D000000533D7E70291450545B3D7D70278A86C
:1019E0005834019B136787018D8BBA977CB8EFF051
:1019F0003FA85A20239CE184914751B7EFF0FFCCD8
:101A00008547AA846313F50283D581853745000095
:101A10001305C55EEF10206A95471CB01E2481E7B0
:101A2000B1473EA041B726A0B5BF2DDD08B09DBF90
:101A30003E2003C731846362F702231104009947F3
:101A40001CB07C24130644018545E59B93E72700E1
:101A500015455CA8EFF0DFA1B1B7998FC207C1832C
:101A60003EA0A9F3E9BFEFF05FC68547AA846311E2
:101A7000F504138981858355090037450000130556
:101A8000C560EF104063035709005E201AA4630E7F
:101A9000F70085C38D471CB0371501400546A145A9
:101AA00013050580EF005062F5BDA3000400EDB7FB
:101AB00065D504B0D5B7EFE2AFE79387419398239C
:101AC0008D4663E8E600FC2F99C3EFF0DFD96FE0A5
:101AD0006FE89147E31DF7FEA535D5BFEFE24FE56F
:101AE00013874193782F411102C402C61384419396
:101AF00025E3B7540040854513850440EF00907CF2
:101B00009307E011054928007C84230501004AC69B
:101B1000EF10C00C9307F01128007C8423052101ED
:101B20004AC6EF10A00B05469305004013850440FC
:101B3000EF00F07A05469305002013850440EF007E
:101B4000107A05469305001013850440EF003079A4
:101B500085477CAC41016FE0EFDFEFE26FDD011103
:101B600037340140E884EC82130504C04C08231B81
:101B70000100231D0100231E010002C602C8EF1050
:101B8000A01D8545130504C0EF1080269307301271
:101B90007C8685475C87680085473EC8EF10000457
:101BA0000546130504C08545EF10E0218545130562
:101BB00004C0EF10C01F05616FE0CFD903C5A18538
:101BC0008280EFE2EFD683C7A1858DE33715014010
:101BD0000546854513050580EF00104F0546A145D4
:101BE00037150140EF00504E6FE0CFD6371501405A
:101BF0000146854513050580EF00104D0146C5B728
:101C0000EFE20FD30547238DE184653FEFE04FFD01
:101C10006FE04FD4EFE2CFD1238D01845D37EFE049
:101C20002FFC6FE02FD3EFE20FCF41118545114517
:101C300002C202C402C6EF10800385454145EF1081
:101C4000000337140140854441494C0013050480CA
:101C500026C24AC626C4EF005030A1494C003715B1
:101C600001404EC24AC626C4EF00302F91474C00B7
:101C7000130504803EC24AC626C4EF00102E4C0055
:101C8000130504804EC24AC626C4EF00102D153F2E
:101C90001305048001469145EF001043130504C06D
:101CA00001468545EF0050420146A14513050480D9
:101CB000EF00904141016FE04FC9EFE26FC783C76A
:101CC000A185ADCF15E1371501401305058001460B
:101CD000A145EF00703FEFF05FB7374500001305F7
:101CE0004569EF10804E35A885476310F502014520
:101CF000EFE00FDFAA85056513058538EFF0BFAD6E
:101D0000374500001305056AE9BF8947631DF500E3
:101D10000545EFE0EFDCAA85096513058532EFF094
:101D20009FAB6FE02FC38D47E31DF5FE0945EFE044
:101D30002FDBAA850D65130505EED5B737450000E5
:101D40001305056B79BFEFE2AFBE373401401305D1
:101D500004C001468545EF10000783C6B18583C7DF
:101D600021848545B387F640A381F184130504C01F
:101D700005462381D184EF1000056FE0AFBDEFE28F
:101D80002FBB1387C18A83C631841C37B69793F75C
:101D9000F70F914663E9F6001CB7EFE0DFEAEFF0DA
:101DA0008FC66FE02FBBA3040700EFE05F91F5B78C
:101DB000411122C6373401408545130504C0EF1098
:101DC000A00119C99387B18598238545130504C0DF
:101DD000050798A3EF10C001324441017300203081
:101DE0009387419523800700A38007002384070081
:101DF00023880700A3840700A3880700238907001E
:101E0000A3890700238A0700A38A0700238B070002
:101E1000A38B0700238C0700A38C0700238D0700EA
:101E2000A3890710239A0710A383018623810186C3
:101E3000A3800186A3890186238A0186A38A01865D
:101E4000238B0186A38B01868280EFE2CFAC3971B0
:101E5000B71401404149930780020C0813850480A0
:101E60004AC83ECC02CA02D602D802DA02DC231EDD
:101E7000010202CE02D002D202D402C402C6EF0096
:101E8000D00D9307000291490C08138504803EC8C9
:101E90004ECCEF00900C9307000405443EC80C089C
:101EA000E147138504803ECC22CAEF00100B930754
:101EB00000080C08138504803EC84ECCEF00F009E2
:101EC0006C10214A9D473735014052DC231EF10238
:101ED00002D602D802DAEF00505D9307100289495A
:101EE00028007C842305310122C6EF00304F914544
:101EF0000145EF00B02868084ACE52D222D402D061
:101F0000EF00807C9307402128007C842305310169
:101F100022C6EF00B04C0546930500063735014058
:101F2000EF00705D9305F00F37350140EF00905ED4
:101F3000854537350140EF00705A0C08138504C001
:101F400022C84ACC22CAEF00500121616FE0EF9F06
:101F5000EFE20F9EEFF0DFE8EFF03FEF6FE08F9FD3
:101F6000EFE20F9D93874195AA97B43B0547B315C0
:101F7000B700D58D93F5F50FACBBB03BAA853745BF
:101F8000000013054571EF1000136FE0AF9C9387BD
:101F900041953E9538398547B395B70093C5F5FF10
:101FA000F98D2CB982804111930500063735014027
:101FB00022C6EF00B05625C537350140EF00D05599
:101FC0007D1542054181A54763E4A70E916793877C
:101FD000076C0A053E951C41828793874195AC3B6F
:101FE00037350140EF00105337350140EF00D05234
:101FF00013879186142393051007054693871600CF
:102000001CA3938781ABB69788A337350140EF00B7
:10201000904E9305000637350140EF00B05293050E
:10202000100737350140EF00704F09CD83C561813E
:1020300037350140EF00104E93051007373501404A
:10204000EF005050854537350140EF0030493244AC
:1020500041017300203093874195CC2B51B7938772
:102060004195CC3BB5BF93874195EC2B95BF13842D
:1020700041956C3837350140EF00D049182C238B3F
:10208000E1809DB7138441950C3C37350140EF004A
:102090007048382CEDB7138441952C3C37350140FE
:1020A000EF0050477828E1BF93874195CC3F0DBFA3
:1020B0007D57F1B74145B52D3DC94145EF00406918
:1020C0007D5701469305100737350140238BE1808A
:1020D000EF00704203C781ABA9461307E7071377E8
:1020E000F70F938781AB1388918663EDE60C9166B9
:1020F0000A079386866E36971843028794330547FE
:102100006399E602A383D186938681869022130782
:10211000160098A2834608001387C1A6329714A31D
:102120007D5798A30547A385E18623000800730027
:1021300020302381E186C9BF98338546E316D7FC5A
:10214000A380E186D1B79433A389D1868546238ABB
:10215000D1865DBF9433A38AD186B423238BD186E5
:102160008546A38BD1864DB785462382D18694338D
:10217000A381D18651BF85462383D1869433A38220
:10218000D18659B785462389D18694331387C18672
:1021900014A3B42314B3B43334A3D42334B3D43347
:1021A00054A3F42354B38DB785462380D18694334A
:1021B0001387C18514A3B42314B3B43334A3D42335
:1021C00034B399B78345080023850186014701454B
:1021D0009386A1861386C1AA9378F70F63E6B800A9
:1021E000E30405F28CA20DB7B388E70083C80800AA
:1021F0003305E6000507230015010545F1BFEFD2C1
:102200003FF31307C0129307C0126363B700AE8792
:1022100013970701938741954183C546B4BB931635
:1022200015001355870036951375F50FE8BB137726
:10223000F70F98AF0547A389E71013072003239AE8
:10224000E710AC3B3745000013054572EF00B06660
:102250006FD05FF0EFD2DFED41112A89AE84138495
:1022600041959307200301CE894763E8A7008D4578
:102270000D4536C6EFF0DFCEB246930740023CB8BC
:1022800089C63C3893E707083CB82C38374500002E
:1022900013054572EF003062060913D584004A9594
:1022A0001375F50F68B893F4F40F04ACF1573CBC08
:1022B0008547A309F41093072003231AF410410162
:1022C0006FD05FE91365C50F93874195A8BF8280E2
:1022D00093874195A3890700238A0700A38A0700F3
:1022E000238B0700A38D0700A38907101547239AA6
:1022F000E71082801E2103C731846379F700998F2C
:10230000C207C1831EA113B5170082808147DDBFBC
:10231000EFD27FE09387419583D74711138441958E
:10232000C207C183B9C38357441103C7318463E72C
:10233000E72083574411998FC207C183231AF410F1
:1023400083574411C207C1838DE383453411374558
:10235000000013054574EF0010560346341137157D
:1023600001408545130505C0852383C7818703C7C1
:10237000318413898187814463E6E700B384E740B1
:1023800093F4F40F03CAB18623009900854793891B
:10239000B1866313FA1A6391041A9387718698239E
:1023A0001DC3374500001305C57523800700EF00E6
:1023B000D0617C2893F7D70F7CA8230A4401A30A95
:1023C0000400EFE05FDB9387218698231DC3374528
:1023D00000001305057723800700EF00105F7C28BD
:1023E00093F7E70F7CA8230A0400A30A0400EFE098
:1023F0009FD69387118698230DC3238007008547B6
:102400005CB87C28374500001305857893F7B70F33
:102410007CA8EF00905BEFE01FD89387418798235B
:1024200011C72380070083C731877CA893877187F2
:1024300098231DC3374500001305057A2380070044
:10244000EF00B05883C5618703C55187EFD01FE601
:10245000EFF00FFBEFF08FE883C54186938A41864A
:1024600089C903C63186374500001305857BEF0017
:10247000904483C56186138A618689C903C65186E3
:10248000374500001305057DEF00F04283C5218725
:102490001384218789CD1386C1863C3238221432B9
:1024A0001022374500001305857EEF00D04003C59C
:1024B0000A0003470A001C2049E5B366F700C9E695
:1024C0009387018698231DC31384C1851385C18515
:1024D00023800700EFE07FC63830342010300C2016
:1024E0003755000013050581EF00F03C23800900FB
:1024F00083C7A1869389A186C5E383C5818613849A
:10250000818695C53755000013058583EF00B03AE5
:10251000138AC1A6B74A00001C2063E5F4083745BA
:10252000000013050536EF00504A23000400A947B8
:10253000238009002300F9006FD03FC1231A041043
:1025400029B523800A00114509C71365250023001A
:102550000A0089C7136515002300040003C65186CD
:1025600083C531869386C186EFE07FD291BFB307E2
:102570008A008C2313850A830504EF00D03313747B
:10258000F40F83C70900E364F4FE37450000130528
:102590000536EF00904395B70144138AC1AAB75A94
:1025A0000000C5B7B3079A008C2313858A6285049F
:1025B000EF00703093F4F40F85B7B71702409843DB
:1025C000B70600F99386F6F51367170098C3D8434A
:1025D00013670705D8C3D843758FD8C33727024080
:1025E0001443F19A14C3144393E6260014C3D8434A
:1025F0001377F7F0D8C3D843D8C38280B716024008
:10260000DC42918313F7F700B70700209387870216
:10261000BA979C23D4423777DC0293F7F70F13075E
:1026200007C093F606083356F70099E23356F702CF
:1026300023ACC180828001A097E1FF1F9381012715
:10264000173100201301019C172500001305052AEE
:1026500097E5FF1F9385059B1386818363FAC50069
:102660008322050023A0550011059105E3EAC5FE6C
:1026700013858183938581AC6377B50023200500A2
:102680001105E36DB5FEFD42739002BC8D4273905F
:102690004280930280087390023097E2FFFF93829A
:1026A000A29693E2320073905230EFF01FF197F24E
:1026B000FFFF938202C77390123473002030B7F784
:1026C000FF1F03A5477082805841032805004C4531
:1026D00037060140930706403E979346F8FFB1C581
:1026E00083250640F58D2320B640D043F18ED4C318
:1026F0001443B3E6060114C3184190479346F7FF0D
:10270000758E90C7D047F18ED4C714454146639962
:10271000C6009447D98E94C7D447558FD8C78280B6
:10272000B6979443558F98C382801C43F58F1CC382
:102730008280B70701401387074083A70740584BA3
:10274000698F09C77D8D3335A00082800145828065
:10275000B707014023AAA7408280984593770701D5
:102760001378F70081C7DC413368F8009441814752
:1027700013F6F60F39C21C410146854E3D4F930FAB
:10278000800293028004214EB398CE00B3F5160167
:102790006391B80213132600B3156F0093C5F5FFBC
:1027A000ED8F33136800B367F3006317F70D232A27
:1027B00015010506E31AC6FD1CC14166130606F0A5
:1027C000758E3DC23716014093050680631BB50A1E
:1027D00083A7C181A145854E3D4F930F800293028F
:1027E0008004414E3393BE0033F666006312C30289
:1027F000139625000116B318CF0093C8F8FFB3F75E
:10280000F8003316C800D18F6319F709232A650031
:102810008505E399C5FD371601405CC19305068027
:102820006312B50823AEF180C16763E6F604504D2C
:102830008147054E3D4F930F800293028004A14EC5
:1028400093850701B315BE00B3F8B6006391150375
:102850009398270033131F011343F3FF3376C3000C
:10286000B318180133E6C800631AF7054CC9850789
:10287000E398D7FD50CD8280E31D57F22328150140
:102880000DBF930506C06315B50083A7018299B7F4
:10289000E312C5F483A7418235BFE31B57F6232813
:1028A0006500BDB7930506C06315B50023A0F1828E
:1028B000A5BFE31BC5F623A2F182BDB7E31957FA02
:1028C000B315FE000CD165B701CA93970501C1830A
:1028D0001CC9C1810CD182804CC98280B7080140DB
:1028E00083A74800135705019316050137063000EA
:1028F000131345003D8BC1823378C5006350030636
:102900006313C80203A64800370700F17D17F98F4B
:10291000718F23A2E8009DC145811375050733958A
:10292000A600C98F21A813169500635D060037879E
:10293000FCFF7D17F98F99C1BE06D58F370701407F
:102940005CC38280370620006313C80041071D4620
:102950003317E6001347F7FFF98F75BF6315C800FB
:1029600041070D46F5B71316B500E34C06FE1357A5
:102970001501137707073397E600E9BF93F7F500D2
:10298000918113972500B7050140BA9594458607B4
:102990000D473317F7001347F7FF758F98C5984514
:1029A0003315F500598D88C58280EFD26FF801117B
:1029B000AA84422108082EC6A52CE24737470F00FB
:1029C0001307072433D7E70242044180137404FC41
:1029D00042044180B245E1669386066A598C4204FE
:1029E0004180C2A09A2042074183799B42074183DC
:1029F0009AA0984163E4E604060733D7E7029146BC
:102A0000BA87420741836373D7009147C207C183E6
:102A1000DEAC9E20DA21B62593E717009EA09E200B
:102A2000558FC207C18393F757BFD98F9EA09A25B0
:102A3000DE25D98F9EA405616FD0CFF1F221B1665A
:102A4000FD166311D6028D463307D702B3D7E702CE
:102A5000C207C1831397470119E393E71700216762
:102A6000D98F7DB7E5463307D702B3D7E7021167A1
:102A7000C207C183D98FF9BF1E2189C593E717000B
:102A80001EA18280C207C183F99BC207C183CDBF4B
:102A90001E2189C593E707101EA18280C207C1834A
:102AA00093F7F7EFC207C183C5BF1E2189C593E71E
:102AB00007201EA18280C207C18393F7F7DFC207F8
:102AC000C183C5BF1E2189C593E707401EA182802F
:102AD000C207C18393F7F7BFC207C183C5BF5E2199
:102AE00001C6DD8D4EA1828093C5F5FFFD8DDDBF52
:102AF0000EA982800A291375F50F828093F7E50FDE
:102B000019C293E71500C207C1831EA98280411133
:102B100002C62AC6B247BE952EC6B2478A234101D5
:102B200082801A219385058089E9856793870780CC
:102B3000D98FC207C1831EA18280FD779387F77F5B
:102B4000F98FD5BF411102C402C693D7C5012AC669
:102B50003EC4A247A205A18199CBB247D1073EC688
:102B6000B247884341016D8D3335A0008280B24762
:102B7000C181E107EDB75E215A29C2076D8FC1837C
:102B800009CB13D505017D8D137505703335A00074
:102B900082800145828093C5F5FFC205C1814EA99F
:102BA0008280B737004088C38280B7370040C8C3EF
:102BB0008280B737004088C78280AD6737370040D2
:102BC0009387A7AA1CC38280B567373700409387D5
:102BD000C7CC1CC3828023AEA186828003A7C18795
:102BE000854714216310F7021C31639CE7023C21E6
:102BF000960793E707F837E700E093F7F70F369764
:102C00002300F740054793D756003317D7005441A8
:102C100089CE938707048A07B7E600E0B69798C382
:102C20008280EDF33C219607F9B793870706E5B755
:102C3000B777DC02938707C01CC1371602405842A1
:102C400011839376F7003707002013078703369721
:102C50001423504293F6F60F1376060833D7D700A5
:102C600019E233D7D70258C118C558C5828099C513
:102C7000371702401C4F5D8D08CF8280B717024086
:102C8000984F1345F5FF798D88CF828099C5371706
:102C900002405C4F5D8D48CF8280B7170240D84F0D
:102CA0001345F5FF798DC8CF82801A218D679387F0
:102CB0000704B6217D8F9E21D58FD621D58FF62191
:102CC000D58F9625D58FB625D58FD625D58FF625C8
:102CD000D58FD98F1EA19E291EA982801E2189C54C
:102CE00093E707041EA18280C207C18393F7F7FB15
:102CF000C207C183C5BF85479181B395B7005E21E7
:102D0000C205C18101C6DD8D4EA1828093C5F5FF4C
:102D1000FD8DDDBF4EA582804A2582805E2116256D
:102D200013F7F50005453317E500C207758FC1831A
:102D300001CB91813315B5007D8D3335A0008280A4
:102D400001458280BD898547B397B70093C7F7FFD8
:102D5000C207C1831EA582801E2137370140130799
:102D600007C0C207C1836306E5003707004063164A
:102D7000E500BA2193F7F7F8D98FFA2193F7F7CF47
:102D8000C207C183D98F1EA1DE215EB59E211EB56B
:102D9000B7370140938707C06306F500B7070040C7
:102DA0006314F5009C251EB985475EA982801E210B
:102DB00089C593E717001EA18280C207C183F99BD2
:102DC000C207C183CDBF5E2501C6DD8D4EA58280C1
:102DD00093C5F5FFFD8DDDBF1E294A25ED8F420508
:102DE000418189C76D8D3335A00082800145828085
:102DF00093C5F5FFC205C1810EA98280EFD24FB302
:102E00001629F577FD17F58FF621DA250111D58FF3
:102E10001EA95625FD779387379FF58FD6212A84E3
:102E20002EC6D58F9625D58FB625D58F5EA55E2962
:102E3000C207C18393F7F7CFD98F5EA90808EFF0D7
:102E40003FDFB747014093870780B245631EF40216
:102E5000F2476547B387E7029841930640060A07A1
:102E6000B3D7E70233D7D702B3F7D70212079207D7
:102E700093872703B3D7D702BD8BD98FC207C183EE
:102E80001EA405616FD00FADE247E1B791C55E2585
:102E90000967D98F5EA582805A25F977FD17F98FCA
:102EA000D5BF93F5F51F4EA182800A216D8D333574
:102EB000A000828083A7818137177A00130707203B
:102EC000B3D7E70293F7F70F2381F1881307803E0A
:102ED000B387E7022390F1888280B7F700E0D843F8
:102EE0008146799BD8C303C721883306A70290CBBC
:102EF000D4CB98431367070198C39843136717020D
:102F000098C3D843058B75DF9843799B98C382801B
:102F1000B7F700E0D8438146799BD8C303D701882F
:102F20003306A70290CBD4CB98431367070198C30D
:102F300098431367170298C3D843058B75DF9843EE
:102F4000799B98C38280EFD2AF9E2A8411650111CC
:102F500085452105EFF0BFD1930700403EC23715EC
:102F6000014085473EC44C00E147130505C03EC6FD
:102F7000EFF0AFFE22C837440140B70708000C0845
:102F8000130504803ECC02CA231E0100EFF01FE7A8
:102F9000854513050480EFF07FEF05616FD08F9BAF
:102FA000EFD26F97B7440140AE89328901449384D0
:102FB0000480634524014A856FD02F99930500044E
:102FC0002685EFF09FEE7DD9B387890083850700C2
:102FD00026850504C205C181EFF0BFECD9BF138778
:102FE00081821C43938681AC3E95636BD500B756B6
:102FF00000209386068063E5A60008C33E85828094
:10300000FD57EDBFB3C7A5008D8B3307C50081E722
:103010008D4763EDC700AA87637EE5089421850785
:103020008505A38FD7FEE3EBE7FE8280937635001C
:10303000AA8789CA942185078505A38FD7FE93F6B1
:103040003700C5BF9376C7FF138606FE63F0C70639
:1030500083A3050083A2450083AF850003AFC500AD
:1030600083AE050103AE450103A3850183A8C50115
:103070009385450223A0770003A8C5FF23A257002C
:1030800023A4F70123A6E70123A8D70123AAC70198
:1030900023AC670023AE17019387470223AE07FFD7
:1030A00075B790419107910523AEC7FEE3EBD7FEBC
:1030B000E3E6E7F6828039713EDA2ED232D436D694
:1030C0003AD842DC46DE9387C18222CC804326CAAE
:1030D00006CEAA8409C41C4C99E32285FD290C4420
:1030E00054102686228536C6EF009013F2406244C3
:1030F000D24421618280011126CA4AC806CE22CC60
:103100004EC652C4AA842E8901C51C4D91E3F121FB
:103110009C4C804499E32685C9219717000093872A
:103120002775631BF402C0405E24A18BB1C71C4805
:10313000A1C7FD59294A1C4483450900FD17B1E97F
:103140001CC463DD07062286A94526856920FD5734
:103150006308F502294535A0971700009387477348
:103160006314F4008044C9B7971700009387476E33
:10317000E31CF4FAC0444DBFA2852685192A55D90F
:103180007D55F2406244D2444249B249224A056127
:1031900082801CC4050963D70700184C63CAE70086
:1031A000638845011C401387170018C08CA361B7C2
:1031B000228626850D20E31035F9D9B71C401387E8
:1031C000170018C0294798A371B79387C182AA85B1
:1031D00088436FF05FF2011122CC26CA4AC806CE9E
:1031E0004EC6AA842E89328401C51C4D91E3F52672
:1031F000971700009387C7676317F406C0401C4CFD
:103200001CC45E24A18BC1C31C48B5CF1C48084018
:103210009379F90F1379F90F1D8D5C486346F5001A
:10322000A2852685692C25E51C440505FD171CC4CF
:103230001C401387170018C0238037015C4863883F
:10324000A7005E24858B81CBA9476316F900A28570
:103250002685B5240DEDF24062444A85D2444249A8
:10326000B2490561828097170000938767626314F3
:10327000F400804469B7971700009387675DE310F7
:10328000F4F8C044ADBFA2852685212041D17D59E7
:10329000D9B741119387C18226C2844322C44AC050
:1032A00006C62A892E8489C49C4C99E32685352636
:1032B000971700009387C75B631BF402C040031796
:1032C000C40093170701C18393F68700ADEA93F614
:1032D000070195EEA5472320F900136707045AA4B8
:1032E0007D55B240224492440249410182809717A1
:1032F00000009387E7596314F4008044C9B7971717
:1033000000009387E754E31CF4FAC0444DBF918B4F
:103310009DC34C5889C9930744046384F5004A85CA
:10332000292B232A04025E242322040093F7B7FDED
:103330005EA41C481CC05E2493E787005EA41C4862
:1033400099EB5E241307002093F707286385E700B5
:10335000A2854A8591295E2413F717001DC35C4896
:1033600023240400B307F0401CCC1C480145B5FBE6
:103370008317C40013F707082DD793E707045EA44B
:1033800085B7898B014791E3584818C4F9BFDE25FA
:10339000011122CC26CA06CE4AC84EC613F78700B2
:1033A000AA842E8479EBD841634DE000B841634A8A
:1033B000E0000145F2406244D2444249B24905610D
:1033C000828058547DD703A904009396370123A027
:1033D000040063DB060670485E24918B99C75C404D
:1033E0001D8E5C5899C33C401D8E5C540C50814628
:1033F00026858297FD575A24631DF5009440F547B2
:1034000063E8D706B70740208507B3D7D700858B79
:10341000A5C31C48232204001CC09317370163D89E
:103420000700FD576314F5009C4091E368C84C58B1
:1034300023A02401BDDD930744046384F5002685A1
:10344000ED2E232A0402B5B70C5001468546268589
:103450000297FD572A86E311F5F89C40B5DF7547C2
:103460006385E70059476393E70423A0240191B7DC
:10347000136707045AA47D5535BF83A90501E38A64
:1034800009F203A905008D8B23A0350133093941C9
:10349000014791E3D84918C4E35D20F11C540C5056
:1034A000CA864E86268582976347A0005E2493E7EE
:1034B00007045EA4C9B7AA993309A940F1BF9C4982
:1034C000A5C3011122CC06CE2A8411C51C4D81E76B
:1034D0002EC62122B2459717000093876739639C57
:1034E000F5004C408397C5009DC722856244F24099
:1034F00005616FF0DFE997170000938767396394E0
:10350000F5000C44C5B79717000093876734E39B19
:10351000F5FC4C44C1BFF240624401450561828024
:1035200001458280411122C406C62A844EA572A597
:10353000232005002322050023240500232205065D
:1035400023280500232A0500232C05002146814558
:103550001305C505EFC0DFC097170000938787B23A
:103560005CD0971700009387A7B41CD4971700006E
:10357000938787B85CD4971700009387E7BA00D089
:103580001CD8B240224441018280970500009385F7
:1035900045F391AA411126C2130680069384F5FFD4
:1035A000B384C4024AC02E8922C406C69385440748
:1035B0000D2E2A8401CD232005002322250131056B
:1035C00008C4138684068145EFC09FB92285B240A6
:1035D000224492440249410182801C4DA5E74111D9
:1035E00006C622C497070000938767FA1CD5938705
:1035F00001839C4323240504232605042328050472
:103600006314F50085471CCD2A84352848C02285DF
:103610001D2808C42285052848C448400146914514
:10362000EFF05FF008440546A545EFF0BFEF4844D2
:103630000946C945EFF01FEF85471CCCB240224434
:1036400041018280828041119387018326C2844395
:103650004AC006C69C4C22C42A8981E72685EFF021
:10366000DFF7938484048044DC40FD1763D60700B1
:103670009C40B9CF8440C5BF0317C40039E7C17768
:103680008507232204062320040023220400232488
:1036900004005CC423280400232A0400232C040013
:1036A000214681451305C405EFC09FAB232A0402C0
:1036B000232C040223240404232604042285B2407C
:1036C000224492440249410182801304840671BF5E
:1036D00091454A85EFF01FEC88C049FDB147232092
:1036E000F9000144E1BF797122D44AD052CC56CAC4
:1036F0005AC85EC606D626D24ECE2A8AAE8A130491
:1037000085040149054BFD5B09ECB25022544A8502
:1037100092540259F249624AD24A424BB24B456135
:103720008280044483294400FD1963D409000040C9
:10373000E1BFDE24637BFB008397E40063877701AE
:10374000A6855285829A3369A90093848406E9BFCD
:103750001971A6DAAE848395E500A2DC86DE328498
:1037600063DB0500DE2423A0060093F7070885E746
:10377000930700401DA0300836C6EF007020B24607
:10378000E34205FE7247BD67F98F7977BA9793B721
:1037900017009CC2F1BF930700041CC0F65066548A
:1037A000D654014509618280DE25011122CC06CE66
:1037B00026CA4AC8898B2E8489CF930774041CC0FB
:1037C0001CC885475CC8F2406244D2444249056146
:1037D000828074003000AA84EFF09FF7A2452A8906
:1037E0002685012219E98317C40013F7072061FF1A
:1037F000F19B93E727005EA4C9B797070000938762
:1038000007D99CD45E2408C008C893E707085EA4C3
:10381000A2475CC8B24781CF8315E4002685EF003C
:10382000D01811C55E24F19B93E717005EA45E24B7
:103830003369F9002316240179B7DDC183A7C5FFD9
:10384000411122C406C626C21384C5FF63D30700F4
:103850003E94AA84EF00301C938741889C4381EFFB
:103860002322040023A281882244B2402685924468
:1038700041016F00701A637EF40014403307D400D6
:103880006396E7009843DC43369718C05CC0D9BF05
:10389000BA87D84319C3E37DE4FE94433386D70047
:1038A000631F86001040B29694C33386D700E31D91
:1038B000C7FA10435843B29694C3D8C375B763751B
:1038C000C400B1479CC04DB71040B306C400631696
:1038D000D70014435843B29614C058C0C0C369B748
:1038E0008280011126CA93843500F19806CE22CC3D
:1038F0004AC84EC6A104B14763F3F404B14463E27D
:10390000B4042A89EF0030119387418898433A84A0
:1039100039E0938781889C4391E781454A85252F2B
:1039200023A4A188A6854A853D27FD59631935073B
:10393000B1472320F9004A85EF00100E29A0E3D0FB
:1039400004FCB1471CC10145F2406244D2444249E3
:10395000B249056182801C40858F63CF0702AD4666
:1039600063F6F6001CC03E9404C031A05C406313B3
:10397000870223A2F1884A85EF00100A1305B400DC
:103980009307440061993307F5405DDF3A94898FCE
:103990001CC05DBF5CC3C5B72287404095BF130400
:1039A00035007198E30285FCB305A4404A8565257E
:1039B000E31C35FBB5BF1C46FD171CC663DA0700C8
:1039C000184E63C5E700A9476394F5006FF0BF8008
:1039D0001C422E851387170018C28CA38280011108
:1039E00022CC26CA4AC84EC652C406CE2A89AE89FF
:1039F0003284B304D6007D5A63149400014509A8AB
:103A00000C204E864A85EFF01FFB0504E31645FFA8
:103A1000F2406244D2444249B249224A056182805E
:103A2000357122CD26CB4AC94EC706CF52C556C3E3
:103A30005AC1DEDEE2DCE6DAAA89AE843289368457
:103A400009C51C4D99E3EFF05FB997170000938704
:103A500027E26398F40C83A44900DE24A18BE5C718
:103A60009C48F5C393070002A304F10293070003E7
:103A700002D22305F10222C6930B5002971A0000CE
:103A8000938A0AE3054C294B4A841C2099C3639FFF
:103A9000770DB30C2441638E0C00E6864A86A6851A
:103AA0004E85EFF0DFF3FD57630FF51C9256E69657
:103AB00036D21C206389071CFD571309140002C865
:103AC00002CE3ECA02CCA309010482D48345090078
:103AD000154656852D2713041900C24751E913F7DF
:103AE000070109C713070002A309E10413F78700C0
:103AF00009C71307B002A309E104834609001307AD
:103B0000A002638FE606F2474A84814625461820C4
:103B100093051400130707FD6377E60AB5CA3ECE86
:103B200085A8971700009387A7D66395F40083A410
:103B3000890025B797170000938787D1E39FF4F09A
:103B400083A4C90019BFA6854E85EFF08FF419D95B
:103B50007D55FA406A44DA444A49BA492A4A9A4A9F
:103B60000A4BF65B665CD65C0D618280050431BF52
:103B7000330555413315AC00C98F3EC82289B9B70A
:103B8000324793064700184336C6634707023ACECA
:103B900018209307E002631DF70418309307A00272
:103BA000631BF702B2470904138747009C433AC6D8
:103BB00063C107023ECA2DA83307E04093E7270000
:103BC0003ACE3EC8F1B7B387670385462E84BA97CD
:103BD0003DBFFD57C5B7050402CA8146814725464A
:103BE000182093051400130707FD6374E606F9F225
:103BF0000C200D4617150000130505CC092511CD25
:103C000097170000938747CB1D8D93070004B39748
:103C1000A700424505045D8D2AC80C2019461715DA
:103C200000001305A5C9130914002304B102C12B18
:103C300035C197C7FFFF9387E73C95E74247B247F7
:103C40001377071009CF91073EC69257D2973ED2FD
:103C500025BDB387670385462E84BA9751B79D0764
:103C6000E19BA107D5B7780097060000938666D739
:103C700026860C084E8597000000E7000000FD57DF
:103C80002A8AE314F5FCDE2493F70704E39207EC99
:103C90001255C1B5780097060000938686D4268613
:103CA0000C084E85012AE1BF797156CA9C49BA8A2F
:103CB000984522D426D24ECE52CC06D64AD05AC8E7
:103CC0005EC6AA892E84B284368A63D3E700BA8797
:103CD0009CC00347340419C385079CC01C4093F75C
:103CE000070281C79C4089079CC0032904001379FF
:103CF0006900631A0900130B9401FD5B5C44984052
:103D0000998F634CF9041C408346340493F70702EF
:103D1000B336D000A5EB13063404D2854E85829AC3
:103D2000FD576303F5041C4011469840998B544499
:103D300081446397C700B384E64063D304008144A1
:103D40001C4418486354F700998FBE9401496904D4
:103D50007D5B63982405014509A885465A86D2856E
:103D60004E85829A631E75017D55B250225492543D
:103D70000259F249624AD24A424BB24B45618280B3
:103D80000509ADBF3307D40013060003A301C70420
:103D90000347540493871600A2978906A381E7047A
:103DA0009DBF85462286D2854E85829AE30E65FBAD
:103DB000050945B7797122D426D24AD04ECE06D60F
:103DC00052CC56CA5AC8B689942D930790063289A8
:103DD000AA842E8413863504638DF60263E2D70627
:103DE000930780056386F61863EDD700638E06207F
:103DF00093073004638EF60A930A24042301D40443
:103E0000C9A0930730066385F60A93074006E39539
:103E1000F6FE1C40084393F6070893054500C5C607
:103E20001C410CC363D807001307D002B307F0404E
:103E3000A301E404971600009386C6A8294765A845
:103E4000930700076382F61663E5D7029307E0063F
:103E50006389F6189307F006E390F6FA0C401C43CA
:103E600013F80508138547006307080608C39C4339
:103E700085A893075007E383F6FE930780076389BD
:103E8000F61293073007E399F6F61C43D0418145BB
:103E90009386470014C383AA070056858D2601C563
:103EA0003305554148C05C401CC8A301040461A807
:103EB0001C43930A2404938647009C4314C32301A4
:103EC000F4048547D5B793F607041C410CC3B9DA4F
:103ED000C207C18781BF93F5050408C3C9D99E23D2
:103EE0001307F0066387E60E971600009386869DFB
:103EF0002947A30104044C400CC463C505000840D5
:103F00006D9908C099E3B28A89CDB28AB3F5E70208
:103F1000FD1AB6958C212380BA00B3D5E70263F071
:103F2000E70CA147631EF7001C40858B91CB5840DE
:103F30001C4863C7E70093070003A38FFAFEFD1A2E
:103F40003306564110C84E87CA867000A285268562
:103F5000EFF09FD57D5A631D450B7D55B25022541D
:103F600092540259F249624AD24A424B45618280D8
:103F7000A382D504971600009386C6940C4008438C
:103F800013F805081C411105630D080208C313F757
:103F9000150001C793E505020CC04147B9FB0C4071
:103FA00093F5F5FD0CC0B1B79C4193E707029CC1A6
:103FB00093078007A302F404971600009386C69126
:103FC00075BF13F8050408C3E30308FCC207C183E7
:103FD0007DBF971600009386E68E214719BFAE87F6
:103FE00035B794411C43CC4913F8060813854700A4
:103FF0006306080008C39C438CC339A008C393F62A
:1040000006049C43F5DA8EA323280400B28A25BF58
:1040100014485686CA8526858299E30045F51C40DA
:10402000898B8DE7B2474844E35AF5F23E853DB7A8
:1040300085465686CA8526858299E30065F3050A7A
:104040005C443247998FE345FAFEE9BF014A930A7F
:1040500094017D5BF5B7411122C42A842E8523A2E9
:1040600001AC06C6EFE0BFF7FD576317F500938775
:1040700041AC9C4391C31CC0B240224441018280A8
:10408000411122C42E848395E50006C67922634936
:1040900005007C48AA977CC8B24022444101828036
:1040A0005E247D777D17F98F5EA4FDB7DE250111B3
:1040B00022CC26CA4AC84EC606CE93F70710AA8459
:1040C0002E843289B68991C78395E50089460146D9
:1040D00009225E247D777D17F98F5EA48315E400A5
:1040E0006244F240CE864A86B24942492685D2448D
:1040F000056125A8411122C42E848395E50006C6DA
:10410000C928FD575A24631AF500FD77FD17F98F6A
:104110005EA4B2402244410182808567D98F5EA4AB
:1041200068C8C5BF8395E50005A8411122C42A844B
:104130002E85B285368623A201AC06C6EFE05FE687
:10414000FD576317F500938741AC9C4391C31CC096
:10415000B240224441018280411122C42A842E852A
:1041600023A201AC06C6C520FD576317F50093874F
:1041700041AC9C4391C31CC0B240224441018280A7
:10418000411122C42A842E85B28523A201AC06C621
:10419000C920FD576317F500938741AC9C4391C339
:1041A0001CC0B240224441018280411122C42A84B1
:1041B0002E8523A201AC06C65D20FD576317F500CE
:1041C000938741AC9C4391C31CC0B240224441013F
:1041D0008280411122C42A842E85B285368623A28C
:1041E00001AC06C65920FD576317F500938741AC13
:1041F0009C4391C31CC0B24022444101828093F58C
:10420000F50F2A966314C500014582801C21E38EB8
:10421000B7FE0505C5BF82808280411122C42A8471
:104220002E85B285368623A201AC06C6A920FD578D
:104230006317F500938741AC9C4391C31CC0B24007
:104240002244410182809307800523A2F1AC7D5571
:1042500082809307800523A2F1AC7D55828093076D
:10426000800523A2F1AC014582809307800523A23B
:10427000F1AC7D5582809307800523A2F1AC7D557A
:1042800082800000760C0000BE0C0000D40C000000
:104290008A0C00008A0C00008A0C0000000D00004F
:1042A0008A0C00008A0C0000000D0000FA0C0000CF
:1042B000560D00009C0D0000E00D00008A0C00006F
:1042C000F60D00008A0C00008A0C0000300E000081
:1042D0008A0C00008A0C00008A0C00008A0C000086
:1042E0008A0C00008A0C00008A0C00008A0C000076
:1042F0008A0C00008A0C00008A0C00008A0C000066
:104300001E0D0000380D00009E0E0000640F00001E
:104310004A0F00002C1100002C110000601000005A
:104320002C1100007C1000002C1100002C1100004A
:10433000D4100000F80E0000961000002C110000B0
:10434000DE1000001C110000A8100000C0100000CA
:1043500070646F5F696E646578206572726F722138
:104360000D000000526571756573743A0D0A43754E
:104370007272656E743A2564206D410D0A566F6C39
:10438000746167653A2564206D560D0A00000000CF
:10439000434325642053524320436F6E6E6563741C
:1043A0002025640D0A000000434325642053524336
:1043B00020436F6E6E6563740D0A000043432564ED
:1043C0002053494E4B20436F6E6E6563740D0A0097
:1043D000446973636F6E6E6563740D0053656E643C
:1043E00020536F757263652043617020537563635A
:1043F00065737366756C6C790D00000041636365CD
:1044000070740D0050532072656164790D000000D6
:104410005343383732362054696D65204F75742008
:104420002050440D0000000050444F3A25640D0A0E
:1044300043757272656E743A2564206D410D0A569B
:104440006F6C746167653A2564206D560D0A000033
:1044500048616E646C6520526571756573742020C7
:1044600025640D0A000000002020526571756573F7
:10447000743A0D0A202050444F5F4964783A25640D
:104480000D0A0000202043757272656E743A25642F
:10449000206D410D0A000000537563636573730D51
:1044A00000000000556E737570706F727465642043
:1044B000436F6D6D616E640D0000000049465F52F0
:1044C000585F52455345540D00000000706420644D
:1044D000617461206572726F7220256420202564EA
:1044E0000D0A000041494F2049442053656E642065
:1044F000253032782020253032782020253032783F
:104500002020253032780D0A00000000504420564B
:10451000616C766520546573742053656E640D007C
:1045200053797374656D436C6B3A25640D0A000012
:104530004368697049443A253038780D0A00000014
:1045400056342E302E330D00F016000024170000D4
:1045500062170000BC170000561700005617000035
:104560005617000056170000561700005617000097
:1045700096170000A81700006819000082190000B3
:10458000AE190000FC190000301A0000661A000085
:104590004932435F49545F41460D0000756E6B6EB2
:1045A0006F776E20693263206576656E74200D002A
:1045B000737231202578200A7372322025782020EA
:1045C0002025640D0A000000693263207374617253
:1045D000742074696D65206F75740D0069326320F5
:1045E0006572726F722025640D0A00005365747441
:1045F000696E67732056627573202564206D56209E
:10460000737563636573730D0A0000004F75742042
:1046100056627573202564206D562073756363653B
:1046200073730D0A000000002564202000000000C4
:1046300044495320444344432031206F6B200D00F4
:1046400056627573203D20256420206572726F725A
:1046500020203C35560D0A0056627573203D2025FA
:104660006420206572726F7220203E3132560D0A2E
:10467000000000007363383732362E5365745F4F85
:1046800075745F43757272656E74203D2025640DEC
:104690000A00000056627573206F66660D00000008
:1046A000736574203556207363383732360D000039
:1046B000534E4B2056427573206572726F720D0017
:1046C000DA1F0000562000005E2000006620000077
:1046D0006E2000008420000096200000B020000022
:1046E000B0200000A8200000FC20000038210000BD
:1046F00046210000C421000054210000C421000014
:104700006821000076210000C421000084210000FF
:10471000A8210000736574206F6E20256420256435
:104720000D0A00006D795F7370692E436F6E7472AD
:104730006F6C5F446174615B305D203D2025640DCA
:104740000A0000007365742044494F5F537461741C
:104750007573203D2025640D0A00000073706920E8
:104760007365742076616C7665206F70656E0D00E0
:10477000737069207365742076616C766520636C54
:104780006F73650D000000007370692073657420FD
:1047900076616C766520636865636B0D00000000D0
:1047A000737069207365745F50445F53544154556E
:1047B000535F5352430D0000737069206765742086
:1047C0004750494F2025642020253032780D0A00BB
:1047D0007370692067657420494E464F2025642018
:1047E00020253032780D0A007370692067657420C7
:1047F000525353492025642020253032782025301B
:104800003278202530327820253032780D0A0000A9
:1048100041494F204944202530327820202530322C
:10482000782020253032782020253032780D0A007B
:1048300025303278202000007072696E7466206125
:104840006464722025642020202000000000000005
:104850000000000000000000000000000000000058
:104860000000000000000000000000000000000048
:104870000000000000000000000000000000000038
:104880000000000000000000000000000000000028
:104890000000000000000000000000000000000018
:1048A000000000000000000000000000232D302B5D
:1048B00020000000686C4C006566674546470000B4
:1048C0003031323334353637383941424344454646
:1048D0000000000030313233343536373839616208
:0848E00063646566000000003E
:1048E80018806300000000000000010000000703BA
:1048F8000000000000000003001200002C91013E9F
:10490800DED0023EA7C0033E0102030405060708E5
:104918000102030405060708010203040506070847
:104928000102030405060708000000006C480000A7
:104938008C4800004C480000000000000000000007
:10494800000000000000000000000000000000005F
:10495800000000000000000000000000000000004F
:10496800000000000000000000000000000000003F
:10497800000000000000000000000000000000002F
:104988000000000000000000649001362C91013EF8
:10499800040000000680160000000000A700FF00C9
:1049A800006CDC0244444444444444444444444485
:1049B800700300204800002048000020000000008C
:00000001FF
