:040000006F20203D10
:100004000000000000000000DC140000DE1400000A
:1000140000000000D02300000000000000000000E9
:10002400D0230000D02300000000000000000000E6
:10003400D023000000000000D023000000000000D6
:10004400D0230000D0230000D023000000000000D3
:100054002E1E0000D0230000D0230000D023000077
:10006400D0230000D0230000D0230000D0230000C0
:10007400D0230000D0230000D0230000D0230000B0
:10008400D0230000201D0000D0230000121B00001C
:10009400D0230000D0230000D0230000D023000090
:1000A400D0230000D0230000D0230000D023000080
:1000B400D0230000D0230000D0230000D023000070
:1000C400D0230000E60A0000D0230000D023000063
:1000D400D0230000D0230000D02300000000000043
:1000E400000000000000000000000000000000000C
:0C00F40000000000000000000000000000
:10010000397101436EC619A0397141536AC866CA74
:1001100062CC5ECE19A0397101535AD056D252D456
:100120004ED64AD826DA22DC06DE330161408282CE
:1001300041114AC026C222C406C68282B24D410184
:10014000024D924C224CB24B4101024B924A224A40
:10015000B2494101024992442244B24041018280A5
:100160003D432A876373C3029377F700BDEFADE584
:10017000937606FF3D8ABA960CC34CC30CC74CC796
:100180004107E36BD7FE11E28280B306C3408A06C3
:100190009702000096966780A6002307B700A30683
:1001A000B7002306B700A305B7002305B700A304D3
:1001B000B7002304B700A303B7002303B700A302CB
:1001C000B7002302B700A301B7002301B700A300C3
:1001D000B7002300B700828093F5F50F9396850052
:1001E000D58D93960501D58D61B79396270097021B
:1001F000000096968682E78086FA9680C1171D8F4A
:100200003E96E374C3F8A5B7EFF29FF2411185451E
:100210002A84414502C202C402C6EF2000603705AD
:100220003008854513050540EF208045B7070400D9
:100230003EC2914411C0C14405444C0037150140F1
:1002400026C622C4EF20002BB70708004C00371544
:1002500001403EC226C622C4EF20C0294101DDBDB7
:10026000EFF21FED4111B70708003EC291473EC6AD
:100270004C008547371501403EC4EF20A0274101BF
:10028000D1BDEFF2FFEA4111B70708003EC2C147F6
:100290003EC64C008547371501403EC4EF208025FF
:1002A00041014DBDEFF2DFE82A86B705040037159E
:1002B0000140EF20A03B2945EF20007B61BDEFF21C
:1002C0003FE72A86B705080037150140EF20003ABE
:1002D0002945EF206079BDBDEFF29FE50545C537A3
:1002E0000545C9370145E13F01456D3FA5B5EFF231
:1002F0003FE40145453F0145D9370545653705458B
:100300007D3F89BDEFF23FE12A890144930900084E
:10031000A14433D5894033752501553705455937F3
:10032000014505044137E31694FE05B5EFF25FE0A1
:10033000B705080037150140EF20A0322A8429456F
:10034000EF208072228539B5EFF2FFDC0545853F4D
:1003500081443937014493090008214905459937FB
:10036000F13785476317F500B3D799405D8C137457
:10037000F40F014585043D37E39224FF19372285A8
:10038000E9B3EFF2FFDA05451D3F0545213F793F0F
:100390002A840145013F228575BBEFF27FD90537DD
:1003A000054509370145FD3D75B3EFF27FD82A8435
:1003B00025371305400CB937E9372285A137D137E6
:1003C000213F1305500C3D3F6D3FBD3F2A8405453D
:1003D000E937313F2285BDBBEFF29FD541112EC6D3
:1003E0002A84DD3D1305400C313F613F2285193FD2
:1003F000493FB2452E8539376937D53D410199BB13
:10040000EFF21FD32C219307A00A30316395F50832
:10041000930750056311F6081C2105466397C70230
:100420001C3109476381E7026365F700814581CB91
:1004300015B3F11793F7F70F8945E36BF7FE0D45F9
:10044000EF10B009F5B78545DDBF89466396D70043
:100450000831EF10D03EE9BF0D476399E7001C312A
:10046000E1FB81450945EF10300AD9B79145E39189
:10047000B7FC1C31638DC70081CB638CD700E39937
:10048000E7FA91452945C5B78545294555BF8945B1
:10049000EDBF9145DDBF3745000013058505EF2011
:1004A000607A79B793171500898BAE97239AF180FC
:1004B000B70700209387C7019837937615008CA75C
:1004C000719B558F98B705810947B1476363A700B2
:1004D00091472384F1808280894763EFA700B707A3
:1004E00000200A059387C701AA9788339C23220519
:1004F000137505303E9582801305C0128280B77750
:1005000002409A23136727009AA39A234207418344
:10051000759B420741839AA3962319672107558F3C
:100520009AA31387818C420741839AABD823137710
:10053000E70FD8A313077007BAA3D82313672700C0
:10054000D8A3B7E700E03707020023A2E7108280B4
:100550001387C18A1C2F93F7F7FC93E707031CAF9F
:10056000B77702401307400ADAA7FAA78280938779
:10057000C18A982F1377F7FC98AFB777024013071B
:10058000200ADAA7FAA78280EFF29FBAEF1020398B
:100590001384C18A11E9E13F1E2C7D776D17F98F15
:1005A000232004001EAC7DB6930700F85CA81E2C27
:1005B0007D77130707FBF98F93E787041EAC2304AD
:1005C000040023050400231704002319040023203A
:1005D0000400BD3F2D37C1BFEFF29FB54111B16798
:1005E00005443EC24C0091473715014022C43EC627
:1005F000EF105070370701401C4F714693E70730EA
:100600001CCFB777024021479AA3715798B781450D
:100610001385C18AB1361385C188114693854180FF
:1006200000A10505EF20E0568537D13D41011DB6FB
:10063000EFF21FB083D7418C37740240898B6386F9
:1006400007145E24898BC1CB83C7D1830547639090
:10065000E7045E240945C207C18393F7E7F1C207A7
:10066000C1835EA45E2493E707045EA4EF20C03F2D
:100670004A245E240589C207C18393F7E7F1C207C4
:10068000C1835EA45E2493E7070A5EA4E1B4094730
:100690006391E7047E240945C207C18393F7E7F11C
:1006A000C207C1837EA47E2493E707047EA4EF20C3
:1006B000A03B7A247E24C207C18393F7E7F1C207E7
:1006C000C1837EA47E2493E7070A7EA49377170054
:1006D000DDE7014565BF5E240945C207C18393F785
:1006E000E7F1C207C1835EA45E2493E707045EA41A
:1006F000EF20803746245E2409458588C207C183E0
:1007000093F7E7F1C207C1835EA45E2493E7070A6B
:100710005EA47E24C207C18393F7E7F1C207C183B9
:100720007EA47E2493E707047EA4EF20E0337E249A
:100730007A24858B420741831377E7F1420741838F
:100740007AA47A241367070A7AA437170140184756
:100750009316170163D4060093E40404371701408D
:1007600018479316070163D4060093E70704377709
:1007700002401A23118B11C793F70704B9FB0945EF
:1007800031B713C50404198111B75E240945C207A6
:10079000C18393F7E7F1C207C1835EA45E2493E7A8
:1007A00007045EA4EF20402C46245E24094585887A
:1007B000C207C18393F7E7F1C207C1835EA45E2439
:1007C00093E7070A5EA4EF20202A5E24858B99C355
:1007D00093E48400B71701409C47139717016354B3
:1007E000070093E40404377902408357E900094580
:1007F000C207C18393F7E7F1C207C1832317F9004A
:100800008357E90093E707042317F900EF20C02579
:100810000354E9008357E90009450588C207C183ED
:1008200093F7E7F1C207C1832317F9008357E90063
:1008300093E7070A2317F900EF2000238357E90005
:10084000858B99C313648400B71701409C471397A5
:1008500007016354070013640404B7770240DE27DE
:10086000898B89CB058813F51400E30104E201D9D3
:10087000054529BD93F7840421470145639BE700A3
:1008800093770404054591E7137594007D1513359E
:10089000150013748404A147E31AF4DEE31B05E298
:1008A00093F7940005476393E700094593F4040424
:1008B000E38E04DCE9B5EFF2BF879384C18A9E2CF6
:1008C0004111898BB5C3AD3311C5238504004101A6
:1008D0006FF05F88BC241147850793F7F70F6364B7
:1008E000F700BCA4EDB79E2C2385040013F7D7FFB7
:1008F0009AAC918BE9FF054480C0EF10007501456B
:10090000EF10C01123930184938761859823E3102E
:1009100087FC2380070083C7518581C7EF106004DF
:100920007DB7EF10400565B721331384C18AAA85CE
:1009300009C93C241147850793F7F70F6365F70052
:10094000BE852CA469B71E2C2305040093E727005D
:100950001EAC918BADFF2AC6EF00707CB24539ED1D
:10096000377702405E27898B81E77E27898B8DCF81
:1009700085471387D183B7760240639AF5029E229A
:10098000C207C183ED9BC207C1839EA20CA3894706
:100990002EC61CC0EF00B078B2452A86374500004D
:1009A0001305C5F1EF20002A231704000DB79E227E
:1009B00093E747009EA289471CA3D1BF854737779D
:1009C0000240639AF5021E23C207C183ED9BC20752
:1009D000C1831EA3377702405E27898B81E77E277C
:1009E000898B91CF374500008947130545F31CC01B
:1009F000EF20402555BF1E2393E74700D9BF374559
:100A00000000AD47130585F41CC0EF20A023938799
:100A1000618496230567130777BBE377D7F80567EB
:100A20001307E7BA9AA349B7B77702409A23118B05
:100A300051CFFA2713670701FAA7B77702401307C8
:100A4000F004C205BAA3C1818EAB4206D4B3418281
:100A5000F2A3D82313671700D8A39837A3840700FD
:100A6000D82313672700D8A32DC198376207618761
:100A7000E35D07FE98371367070898B79A23118B31
:100A800039CBFA27420741833D9B42074183FAA7AE
:100A9000B77702409A23136727009AA39A23420745
:100AA0004183759B420741839AA3D8231377E70FAD
:100AB000D8A31387818C420741839AAB1307700731
:100AC000BAA3D82313672700D8A38280DA27136735
:100AD0000701DAA79DB7DA27420741833D9B42070A
:100AE0004183DAA775B7B77702409837411122C61C
:100AF000137707022DCB983785461367070298B7FF
:100B000098370D8B6311D706B6271546637DD6043B
:100B1000BE2799461384818C6396F6001C20FD8BBA
:100B20006383E7047945EF103074EF00505F93075B
:100B3000100419C1930710069386018403A7418C02
:100B40009CA21C301583058BB98BD98F9CB237774B
:100B500002401E23A1660946D58F1EA381469385B8
:100B600001840145D135B777024098376207618724
:100B700063500704DA27B7060200420741833D9B12
:100B800042074183DAA7FA27420741833D9B420788
:100B90004183FAA737E700E02322D7181387C18AD9
:100BA000162F93E6160016AF98371367070898B705
:100BB000B777024098371377070409CF9837136740
:100BC000070498B7EFF05F9C3745000013058504D4
:100BD000EF2080183244410173002030EFF2CFD271
:100BE0001387C18E143393D725009207D58F1CB37A
:100BF000814793F6F70F05076390D50889051149DA
:100C000093F4F50F377A0240994A7D191379F90F59
:100C1000630E0904B7E700E03707020023A2E718D4
:100C2000814626869385C18E0545FD3B1304A00FA2
:100C3000854B7D141374F40F69D883479A0093F79A
:100C40000702A9C383479A0093E70702A304FA00A7
:100C50008357AA006398FA0283C7818CFD8B639344
:100C600077039387C18A9827090798A7EFF03F89F0
:100C7000133519006FF0CFCCB306F5009422850729
:100C800014B385BF0D45EF10305E65B79386C18AFA
:100C9000962E2386B18E13F686009387C18E138716
:100CA000C18A01C693E505028CA303C8070013F6A9
:100CB00006049365080419C29365080818278CA3D5
:100CC000C18A398B81EA98B309C59833136707F84D
:100CD00098B3828013671700FDB793F7350091EB47
:100CE000F146854763E8B600EFF28FC4C53D6FF06B
:100CF0006FC685473E858280EFF28FC39387818CD4
:100D00009C339388818C014713D84700137878006F
:100D10009385818C130E000C9376F70F3A8513168A
:100D2000270063FA060103C35800050791081373EF
:100D3000030CE313C3FF238FD1821307E003D8B161
:100D400093F7F7F813174500D98F1385C1889CB125
:100D500014A189050505EF10D0636FF0AFBF7D15B5
:100D60000A05AA959C31B821A2074207BA97982193
:100D7000BA9719C613F7F73FA9453307B7021AA266
:100D800089CAA98393F7F73F13072003B387E702C4
:100D90009EA28280EFF2CFB983C7E183411163E461
:100DA000A700AA8401ED374400001305C4EDEF103D
:100DB000B07A1305401FEF10904EC5BF1384818C8D
:100DC00093172500F517130924009385C188BE9554
:100DD00011464A85EF10F05B9306E1007000CA856A
:100DE0000545B53F30872C8637450000130505EFD4
:100DF000EF10506589450145513D38203C30920443
:100E0000931627008D8BD58F93F7F70F3CB08A0789
:100E10001983B18BD98F93E4340091454A8544B04E
:100E20005CA06D3B194711C17D479387C18A98C368
:100E30009A2F856623970700558F9AAF41016FF06F
:100E40006FB1EFF24FAD1387C18A362B83C7318460
:100E500041111384C18ABE9636AB18439306000233
:100E600063E3E60291660A07938606E13697184324
:100E700002871387618416230566130676BB6364B5
:100E8000D600B6971EA31E2C858B638D072603C93B
:100E9000818C230B040045471379F9019307F9FF6F
:100EA00093F7F70F9384818C6367F74811678A077C
:100EB000130747E9BA979C4382873745000013051B
:100EC000C5F5A38B0184EF103069EFF0EFEB65BF40
:100ED0007A24BA97C207C1837EA41307F07CE37417
:100EE000F7FA5C381547850793F7F70F5CB8E37E90
:100EF000F7FCA30A04002320040071B77A24BA97F0
:100F0000C207C1837EA41307301FE37EF7F61E2CB1
:100F1000ED9B1EACFD471CC019A8B5450145BD336E
:100F20008145014565393335A000160508C02317F2
:100F3000040091BF1E2C9306900A014693E74700D8
:100F4000814505451EACEFF03FAEEFF04FDB2320AF
:100F50000400F1BF138661841A228566938676BBEE
:100F600063ECE600BA97C207C1831EA20545E3FC05
:100F7000F6F0EF00B02A01BF7A24BA97C207C18306
:100F80007EA41307F009E370F7F01E2C231704006A
:100F9000ED9B1EACB1471CC0FDB57A24BA97C207C1
:100FA000C1837EA41307F009E37FF7EC8545014573
:100FB000F13903C78180B14737050020A14563039C
:100FC000F70091451305C501113935F1374500008A
:100FD000B547130585F61CC0EF10105889BF7A2459
:100FE000BA97C207C1837EA47547E37EF7E89307EB
:100FF000000255B77A24BA97C207C1837EA4094775
:10100000E373F7E88D450145513181450145F936D6
:10101000E31205F037450000130585F8EF10D053B3
:10102000C9471CC02317040003C5418499B77A241B
:10103000BA977EA4EF00E06129E5994581398145A1
:101040000145693EE31805EC03C5418583D521853B
:1010500083C6818483C771858DC30546EF005077B1
:1010600005472385E18429472396E184374500001D
:10107000130505F9EF10504ED9BD0146EF0050752C
:10108000F5B77A24856793878738E3FEE7DE37452F
:1010900000001305C5F9EF10304CB1BD1545EF1038
:1010A00010201E2C938A2400ED9B1EAC374B0000B1
:1010B000A131138AE18383470A0063F82705374586
:1010C00000001305C5EEEF10304903450A008947BB
:1010D000938901851389E18463FAA7040D455D397D
:1010E0008D472380F900BC34B824A20793F707305A
:1010F000BA972310F900EFF08FC01E2C23190400BB
:10110000F99B1EAC41016FF04F844A859306E100C4
:101110007000D685A93134873086CA8513054BFB0C
:101120000509EF1030321379F90F61B7A531834704
:101130000A002380F900FD178A07BE94BC30B8204E
:10114000A20793F707106DB71840231704009947BB
:101150006315F700A5471CC079BFEF00407C7DD91F
:1011600059BFEC20374500001305C5FDEF10902D49
:101170000945EF10D012CC3037450000130545FF6C
:1011800091859D890CA8EF10F02B1828994693079C
:10119000F7FF93F7F70F63F5F6009307000265BFBB
:1011A000F020938681842380060093055005938761
:1011B00041846315B60AEC301305A00A6390A508B4
:1011C0009424639DC6089434639AB60803C681804C
:1011D000B1466311D606A38401840D4798A38546C2
:1011E000A38BD18488239306E100700093852400AB
:1011F000238AA184EFF0BFB62C86A94737450000AB
:10120000B3D7F502130505012399F184EF1090235C
:101210009C201A2C2317040093F7070C938707F8D8
:1012200093B717009A071377F7FBD98F1EACBD470A
:101230001CC0D1B50546A384C1844DB76390C502D7
:101240009024631DA6008C34639AC500054690A2C5
:1012500083C58180B146E380D5F8F1BF98A359B723
:1012600083D5E18403C50185EF0030513745000087
:1012700013054502EF10502EA947F1BD0545EF10AB
:10128000100291450145EFF07FA037050020914500
:101290001305850AEFF07FA4B9BD0545EF103000B6
:1012A0008D450145EFF09F9E81450145E5B7054518
:1012B000EF10E07E85450545EFF05F9D3705002086
:1012C000F14513050500F9B70545EF10407D894547
:1012D0000545EFF0BF9BA1451385C18065BF05455E
:1012E000EF10E07B914575BFBC2093F7070CE394AA
:1012F00007E00545EF10A07ABD450145EFF01F99C5
:10130000BC301A2C914593F70706B337F0009E07BF
:101310001377F7F7D98F1EACBC201385240093E711
:1013200007F8BCA085BF0545EF1060771385240042
:10133000EFF00F8DC9B33745000013050503EF101B
:10134000B02155BB0547238EE18218219387818305
:1013500098A3183198B33821B8A33831B8B3828034
:10136000EFE21FDD8D47C145014523A8F190EFF065
:10137000FF91914513850191EFF03F966FE09FDD5E
:10138000EFE21FDB8947C145014523A8F190EFF04B
:10139000FF8F914513850191EFF03F946FE09FDB44
:1013A000EFE21FD99147C145014523A8F190EFF025
:1013B000FF8D914513850191EFF03F926FE09FD92A
:1013C000EFE21FD793870191254798A318212A841C
:1013D000C14598B31831B8A33821B8B33831239335
:1013E00007000145D8A3A3820700EFF03F8A3830F9
:1013F000342010300C203745000013050507EF108E
:101400007004A14513850191EFF03F8D6FE09FD4EB
:10141000EFE27FD01389A1848344090005476389E3
:10142000E4001384A18489476384F4046FE0FFD14E
:101430009389C1841385C184EF00704365D9374512
:10144000000013058509EF1030118947C14501459A
:101450002300F90023A89190EFF05F839145138555
:101460000191EFF09F879307803E2390F9007DBFA5
:101470001385C184EF00B03F11C99387C1839823BE
:1014800011C713858183238007001D3F83C77185A2
:10149000D1FF2300040059BFEFE29FC99387019158
:1014A000214788B3ACA398A3B0B39822C1450145A6
:1014B000D8A39832D8B3B822F8A3B832F8B3D82258
:1014C00098A7D8322395070098B7EFF02FFCB145C5
:1014D00013850191EFF07F806FE0DFC701A001A0CD
:1014E000EFE21FC53765220085451305F5A1EF1012
:1014F000C0326FE03FC6EFE2BFC32A8415654111D9
:10150000130555552EC6EF1080241375F40FEF10F8
:101510008024B2452E85EF108024EF10C024EF10F8
:10152000602541016FE01FC3EFE29FC00545EF104A
:101530004025EF005066EF10C0505D3737150E00A4
:10154000EF104059912183A5818137450000130593
:10155000C50AEF10206FEF003070AA8537450000F4
:101560001305C50BEF10006E374500001305C50CC1
:10157000EF10807EEFF04F869305F0021305703E6A
:10158000352E51658945130505881D200145EFE07D
:10159000BFC70520EF0040729305007D0D45A13FB8
:1015A000EF10601C11232D2BF924EF00102ECDBF5E
:1015B000828093870192239007002392070023944F
:1015C0000700238F07008280EFE29FB6856793872D
:1015D0007738AE841384019263E1A704AA85374566
:1015E000000013050514EF10E065856793878738C1
:1015F0005EA0954793952400B3C5F50237450000DA
:10160000130545176CA093F5F50FEF10A0631C3080
:1016100099E38D471CB06FE0FFB30D69130909EE24
:10162000637CA900AA853745000013058515EF10D6
:1016300060612312240175BF4AA065BF1387019220
:1016400018339387019219E3054798B32392070053
:10165000828003C511928280EFE2FFAB1389019271
:10166000834709008549938401926389370389CBB5
:1016700009476384E7060D47638EE7086FE0FFAC18
:10168000371501400546914513050580EF00107E92
:101690008D472311F90023003901CDB7BE2083C641
:1016A0003184228763E5F6022391040089479CA0D8
:1016B000014493840192294905041374F40F22858F
:1016C000EFE0BFCEA8A48504E31824FF45BF958FA3
:1016D000C207C183BEA0DDF3D1BF13840192138979
:1016E000A400B74900002C24138589120504EF10CB
:1016F0006055E31A24FF374500001305C5EEEF10CF
:10170000A065EC248D47154593E545009CA0EFE0CE
:10171000BFCCADB73745000013050513EF10C0630C
:1017200091472300F90099BFEFE2FF9E9387019252
:101730009C331547FD1793F7F70F6363F7021167A3
:101740008A071307470DBA979C4313840192828737
:101750006C24154593E54500EFE01FC889471CB090
:101760006FE0BF9E3745000013050513EF10C05E04
:10177000A30004002312040023140400D5B7702032
:101780005E207D7750A83034130747D5BA9713668B
:101790002600C207C183514750B81306000533D74E
:1017A000E70293840192014993898185114AB3D755
:1017B000C702239CE1840D8B7CA85C34819B93E75A
:1017C0008701BA977CB8CC2805091379F90F4A85A7
:1017D000EFE09FC08504E31849FF5E20A3002401C9
:1017E0002390F900B5BF83D58185374500001305E7
:1017F000C50EEF10204595471CB01E2481E7B14768
:101800003EA0B9BF8547EDBF3E2003C73184636F5B
:10181000F700231104006C2499471545E59993E5D9
:1018200025001CB04CA8EFE03FBB1DBF998FC2073D
:10183000C1833EA095F7C5B7938481858E20374537
:1018400000001305C510EF10E03F9A205E201AA497
:101850006300F70281CF8D471CB037150140054664
:10186000A14513050580EF007060DDBD8547EDB72C
:10187000A3000400DDB7EFE2BF8B938701929823AA
:101880008D4663E8E600FC2F99C3EFF0FFDC6FE0C4
:101890007F8C9147E31DF7FEEFF01FE9CDBFEFE22C
:1018A0003F8913870192782F1384019201E7054540
:1018B000EFE09F9585477CAC6FE0DF89EFE25F87C3
:1018C000011137340140E884EC82130504C04C0850
:1018D000231B0100231D0100231E010002C602C8B4
:1018E000EF1060008545130504C0EF104009930711
:1018F00030127C8685475C87680085473EC8EF00CC
:10190000B0680546130504C08545EF10A004854561
:10191000130504C0EF10800205616FE0BF8303C5AB
:10192000A1858280EFE2DF8083C7A1858DE3371533
:1019300001400546854513050580EF0030530546F7
:10194000A14537150140EF0070526FE0BF80371599
:1019500001400146854513050580EF0030510146E1
:10196000C5B7EFE2EFFC0547238DE184653FEFE06B
:10197000BFC66FE02FFEEFE2AFFB238D01845D3722
:10198000EFE09FC56FE00FFDEFE2EFF841118545F5
:10199000114502C202C402C6EF00306885454145C8
:1019A000EF00B06737140140854441494C001305EE
:1019B000048026C24AC626C4EF00D033A1494C0099
:1019C000371501404EC24AC626C4EF00B0329147D7
:1019D0004C00130504803EC24AC626C4EF00903175
:1019E0004C00130504804EC24AC626C4EF00903056
:1019F000153F1305048001469145EF00304713055C
:101A000004C001468545EF0070460146A145130517
:101A10000480EF00B04541016FE02FF3EFE24FF19A
:101A200083C7A185ADCF15E13715014013050580AA
:101A30000146A145EF009043EFF05FC0374500003D
:101A400013054519EF10403135A885476310F5029D
:101A50000145EFE07FA8AA85056513058538EFF0FD
:101A6000BFB6374500001305051AE9BF8947631D56
:101A7000F5000545EFE05FA6AA85096513058532E7
:101A8000EFF09FB46FE00FED8D47E31DF5FE0945C4
:101A9000EFE09FA4AA850D65130505EED5B7374580
:101AA00000001305051B79BFEFE28FE837340140D2
:101AB000130504C001468545EF00D06983C6B18592
:101AC00083C721848545B387F640A381F18413053C
:101AD00004C005462381D184EF00D0676FE08FE713
:101AE000EFE20FE51387C18A83C631841C37B697AE
:101AF00093F7F70F914663E9F6001CB7EFF06FB468
:101B0000EFF01F916FE00FE5A3040700EFE0BFDAED
:101B1000F5B7411122C6373401408545130504C08D
:101B2000EF00706419C99387B18598238545130523
:101B300004C0050798A3EF0090643244410173008C
:101B400020309387019423800700A380070023841B
:101B5000070023880700A3840700A38807002389C0
:101B60000700A3890700238A0700A38A0700238BA5
:101B70000700A38B0700238C0700A38C0700238D8D
:101B8000070013070003B8BBA3890710239A0710A7
:101B9000A383018623810186A3800186A389018610
:101BA000238A0186A38A0186238B0186A38B018663
:101BB0008280EFE24FD63971B71401404149930753
:101BC00080020C08138504804AC83ECC02CA02D6A3
:101BD00002D802DA02DC231E010202CE02D002D2B7
:101BE00002D402C402C6EF00F0109307000291492C
:101BF0000C08138504803EC84ECCEF00B00F93074D
:101C0000000405443EC80C08E147138504803ECC1F
:101C100022CAEF00300E930700080C0813850480D9
:101C20003EC84ECCEF00100D6C10214A9D47373551
:101C3000014052DC231EF10202D602D802DAEF0084
:101C4000B03F93071002894928007C8423053101A5
:101C500022C6EF00703391450145EF00702C6808F3
:101C60004ACE52D222D402D0EF00A07F9307402167
:101C700028007C842305310122C6EF00F0300546A0
:101C80009305000637350140EF00D03F9305F00F74
:101C900037350140EF00F040854537350140EF0012
:101CA000D03C0C08138504C022C84ACC22CAEF00DD
:101CB000700421616FE06FC9EFE28FC7EFF07FE83A
:101CC000EFF03FEF938701940547A389E7101307CF
:101CD0004006239AE7106FE0EFC7EFE26FC59387E6
:101CE0000194AA97B43B0547B315B700D58D93F57A
:101CF000F50FACBBB03BAA85374500001305452165
:101D0000EF0050746FE00FC5938701943E9538390A
:101D10008547B395B70093C5F5FFF98D2CB982803F
:101D20004111930500063735014022C6EF00F03718
:101D300025C537350140EF0010377D15420541813B
:101D4000A54763E4A70E91679387071C0A053E9594
:101D50001C41828793870194AC3B37350140EF00EB
:101D6000503437350140EF00103413879186142327
:101D7000930510070546938716001CA3938741AA75
:101D8000B69788A337350140EF00D02F93050006A2
:101D900037350140EF00F033930510073735014028
:101DA000EF00B03009CD83C5618137350140EF00C8
:101DB000502F9305100737350140EF0090318545CE
:101DC00037350140EF00702A324441017300203062
:101DD00093870194CC2B51B793870194CC3BB5BF2B
:101DE00093870194EC2B95BF138401946C3837359D
:101DF0000140EF00102B182C238BE1809DB713843A
:101E000001940C3C37350140EF00B029382CEDB778
:101E1000138401942C3C37350140EF00902878283A
:101E2000E1BF93870194CC3F0DBF7D57F1B741458A
:101E3000EF00C0693DC94145EF00206B7D57014669
:101E40009305100737350140238BE180EF00902385
:101E500003C741AAA9461307E7071377F70F93872C
:101E600041AA1388918663EDE60C91660A07938672
:101E7000861E369718430287943305476399E60216
:101E8000A383D1869386818690221307160098A299
:101E900083460800138781A5329714A37D5798A322
:101EA0000547A385E18623000800730020302381C5
:101EB000E186C9BF98338546E316D7FCA380E18647
:101EC000D1B79433A389D1868546238AD1865DBF55
:101ED0009433A38AD186B423238BD1868546A38BE2
:101EE000D1864DB785462382D1869433A381D1868E
:101EF00051BF85462383D1869433A382D18659B7B7
:101F000085462389D18694331387C18614A3B423CD
:101F100014B3B43334A3D42334B3D43354A3F42349
:101F200054B38DB785462380D18694331387C185FA
:101F300014A3B42314B3B43334A3D42334B399B760
:101F40008345080023850186014701459386A186C4
:101F5000138681A99378F70F63E6B800E30405F2CE
:101F60008CA20DB7B388E70083C808003305E600EC
:101F70000507230015010545F1BFEFE26F9B13072D
:101F8000C0129307C0126363B700AE8713970701AF
:101F9000938701944183C546B4BB9316150013552E
:101FA000870036951375F50FE8BB1377F70F98AFD9
:101FB0000547A389E71013072003239AE710AC3BDA
:101FC0003745000013054522EF00D0476FE08F989A
:101FD000EFE20F9641112A89AE8413840194894758
:101FE00001CE894763E8A7008D450D4536C6EFF061
:101FF000DFCEB246930740023CB889C63C3893E72F
:1020000007083CB82C383745000013054522EF007F
:102010007043060913D584004A951375F50F68B807
:1020200093F4F40F04ACF1573CBC8547A309F410BA
:1020300093072003231AF41041016FE0AF91136559
:10204000C50F93870194A8BF828093870194A389C9
:102050000700238A0700A38A0700238B0700A38DAC
:102060000700A38907101547239AE71082801E21D5
:1020700003C731846379F700998FC207C1831EA11A
:1020800013B5170082808147DDBFEFE2CF889387C9
:10209000019483D7471113840194C207C183BDC340
:1020A0008357441103C7318463E7E7228357441100
:1020B000998FC207C183231AF41083574411C207B2
:1020C000C183A9E383453411374500001305452436
:1020D000EF0050370346341137150140854513058D
:1020E00005C069233C3813070003631DF7008347CD
:1020F000341105476318F700A30904109307200360
:10210000231AF41083C7818703C731841389818719
:10211000814463E6E700B384E74093F4F40F03CA15
:10212000B1862300990085479389B1866313FA1A13
:102130006391041A9387718698231DC33745000065
:102140001305C52523800700EF0010417C2893F775
:10215000D70F7CA8230A4401A30A0400EFF04FA282
:102160009387218698231DC3374500001305052753
:1021700023800700EF00503E7C2893F7E70F7CA8F0
:10218000230A0400A30A0400EFF08F9D93871186B1
:1021900098230DC32380070085475CB87C2837450A
:1021A00000001305852893F7B70F7CA8EF00D03AFD
:1021B000EFF00F9F93874187982311C72380070073
:1021C00083C731877CA89387718798231DC33745C0
:1021D00000001305052A23800700EF00F03783C5B0
:1021E000618703C55187EFE0EFABEFF08FF7EFF0BA
:1021F0000FEB83C54186938A418689C903C6318620
:10220000374500001305852BEF00D02383C5618679
:10221000138A618689C903C65186374500001305B4
:10222000052DEF00302283C521871384218789CDB6
:102230001386C1863C323822143210223745000002
:102240001305852EEF00102003C50A0003470A007E
:102250001C2049E5B366F700C9E6938701869823F9
:102260001DC31384C1851385C18523800700EFF04A
:102270006F8D3830342010300C20374500001305A6
:102280000531EF00301C2380090083C7A1869389A4
:10229000A186C5E383C581861384818695C53745AC
:1022A000000013058533EF00F019138A81A5B74AA2
:1022B00000001C2063E5F408374500001305C5EE57
:1022C000EF00902923000400A94723800900230080
:1022D000F9006FD09FE7231A0410C5B323800A00CA
:1022E000114509C71365250023000A0089C7136536
:1022F00015002300040003C6518683C531869386EA
:10230000C186EFF06F9991BFB3078A008C231385C4
:102310000A330504EF0010131374F40F83C7090088
:10232000E364F4FE374500001305C5EEEF00D0224C
:1023300095B70144138A81A9B74A0000C5B7B3070E
:102340009A008C2313858A128504EF00B00F93F452
:10235000F40F85B7B71702409843B70600F9938684
:10236000F6F51367170098C3D84313670705D8C35A
:10237000D843758FD8C3372702401443F19A14C34A
:10238000144393E6260014C3D8431377F7F0D8C359
:10239000D843D8C38280B7160240DC42918313F73A
:1023A000F700B707002093878702BA979C23D4428F
:1023B0003777DC0293F7F70F130707C093F6060889
:1023C0003356F70099E23356F70223ACC18082807E
:1023D00001A097E1FF1F9381614D17310020130188
:1023E00061C2172500001305650097E5FF1F93855F
:1023F00065C11386818363FAC5008322050023A08B
:10240000550011059105E3EAC5FE13858183938587
:1024100041AB6377B500232005001105E36DB5FEE0
:10242000FD42739002BC8D427390428093028008FB
:102430007390023097E2FFFF938202BD93E2320075
:1024400073905230EFF01FF197F2FFFF9382020E6C
:102450007390123473002030B7F7FF1F03A5477045
:1024600082805841032805004C45370601409307F8
:1024700006403E979346F8FFB1C583250640F58D8B
:102480002320B640D043F18ED4C31443B3E60601F3
:1024900014C3184190479346F7FF758E90C7D047F5
:1024A000F18ED4C7144541466399C6009447D98E2E
:1024B00094C7D447558FD8C78280B6979443558F19
:1024C00098C382801C43F58F1CC38280B7070140EC
:1024D0001387074083A70740584B698F09C77D8D35
:1024E0003335A000828001458280B707014023AACE
:1024F000A74082809845937707011378F70081C73A
:10250000DC413368F8009441814713F6F60F39C275
:102510001C410146854E3D4F930F8002930280047B
:10252000214EB398CE00B3F516016391B802131390
:102530002600B3156F0093C5F5FFED8F33136800C8
:10254000B367F3006317F70D232A15010506E31A95
:10255000C6FD1CC14166130606F0758E3DC23716D6
:10256000014093050680631BB50A83A7C181A1457D
:10257000854E3D4F930F800293028004414E33936A
:10258000BE0033F666006312C302139625000116DF
:10259000B318CF0093C8F8FFB3F7F8003316C8009C
:1025A000D18F6319F709232A65008505E399C5FDD5
:1025B000371601405CC1930506806312B50823AE4F
:1025C000F180C16763E6F604504D8147054E3D4FEB
:1025D000930F800293028004A14E93850701B315E7
:1025E000BE00B3F8B6006391150393982700331328
:1025F0001F011343F3FF3376C300B318180133E60A
:10260000C800631AF7054CC98507E398D7FD50CD7C
:102610008280E31D57F2232815010DBF930506C0E4
:102620006315B50083A7018299B7E312C5F483A7A8
:10263000418235BFE31B57F623286500BDB79305DC
:1026400006C06315B50023A0F182A5BFE31BC5F644
:1026500023A2F182BDB7E31957FAB315FE000CD1DE
:1026600065B708456D8D3335A000828001CA939708
:102670000501C1831CC9C1810CD182804CC98280F3
:10268000B708014083A748001357050193160501B9
:1026900037063000131345003D8BC1823378C500E7
:1026A000635003066313C80203A64800370700F10E
:1026B0007D17F98F718F23A2E8009DC145811375A5
:1026C00005073395A600C98F21A813169500635DF1
:1026D00006003787FCFF7D17F98F99C1BE06D58F9D
:1026E000370701405CC38280370620006313C800AF
:1026F00041071D463317E6001347F7FFF98F75BFF3
:102700006315C80041070D46F5B71316B500E34C35
:1027100006FE13571501137707073397E600E9BF45
:1027200093F7F500918113972500B7050140BA95FD
:10273000944586070D473317F7001347F7FF758F4A
:1027400098C598453315F500598D88C58280B737EF
:10275000004088C38280B7370040C8C38280B73743
:10276000004088C78280AD67373700409387A7AAAB
:102770001CC38280B567373700409387C7CC1CC322
:10278000828023AEA186828003A7C187854714215A
:102790006310F7021C31639CE7023C21960793E724
:1027A00007F837E700E093F7F70F36972300F74075
:1027B000054793D756003317D700544189CE9387E6
:1027C00007048A07B7E600E0B69798C38280EDF366
:1027D0003C219607F9B793870706E5B7B777DC0280
:1027E000938707C01CC13716024058421183937665
:1027F000F70037070020130787033697142350424A
:1028000093F6F60F1376060833D7D70019E233D7BD
:10281000D70258C118C558C5828099C537170240DC
:102820001C4F5D8D08CF8280B7170240984F13452B
:10283000F5FF798D88CF82801A218D6793870704F1
:10284000B6217D8F9E21D58FD621D58FF621D58FAC
:102850009625D58FB625D58FD625D58FF625D58F3C
:10286000D98F1EA19E291EA982801E2189C593E7AA
:1028700007041EA18280C207C18393F7F7FBC2073A
:10288000C183C5BF85479181B395B7005E21C2055D
:10289000C18101C6DD8D4EA1828093C5F5FFFD8DFE
:1028A000DDBF4EA582804A2582805E21162513F762
:1028B000F50005453317E500C207758FC18301CBCD
:1028C00091813315B5007D8D3335A000828001459F
:1028D0008280BD898547B397B70093C7F7FFC207CA
:1028E000C1831EA582801E2137370140130707C010
:1028F000C207C1836306E500370700406316E500A1
:10290000BA2193F7F7F8D98FFA2193F7F7CFC207D7
:10291000C183D98F1EA1DE215EB59E211EB5B737BA
:102920000140938707C06306F500B70700406314B2
:10293000F5009C251EB985475EA982801E2189C5A8
:1029400093E717001EA18280C207C183F99BC207CB
:10295000C183CDBF5E2501C6DD8D4EA5828093C5A6
:10296000F5FFFD8DDDBF1E294A25ED8F4205418112
:1029700089C76D8D3335A00082800145828093C563
:10298000F5FFC205C1810EA98280EFD26FFA162928
:10299000F577FD17F58FF621DA250111D58F1EA9E0
:1029A0005625FD779387379FF58FD6212A842EC62B
:1029B000D58F9625D58FB625D58F5EA55E29C20702
:1029C000C18393F7F7CFD98F5EA90808EFF01FE115
:1029D000B747014093870780B245631EF402F24770
:1029E0006547B387E7029841930640060A07B3D7C5
:1029F000E70233D7D702B3F7D702120792079387BC
:102A00002703B3D7D702BD8BD98FC207C1831EA4BA
:102A100005616FD02FF4E247E1B791C55E250967E4
:102A2000D98F5EA582805A25F977FD17F98FD5BF1A
:102A300093F5F51F4EA182800A216D8D3335A000DC
:102A4000828083A7818137177A0013070720B3D7C5
:102A5000E70293F7F70F2381F1881307803EB387CE
:102A6000E7022390F1888280B7F700E0D8438146DF
:102A7000799BD8C303C721883306A70290CBD4CB58
:102A800098431367070198C398431367170298C3C5
:102A9000D843058B75DF9843799B98C38280B7F73D
:102AA00000E0D8438146799BD8C303D70188330619
:102AB000A70290CBD4CB98431367070198C39843E0
:102AC0001367170298C3D843058B75DF9843799B2A
:102AD00098C38280EFD2CFE52A8411650111854524
:102AE0002105EFF09FD3930700403EC23715014008
:102AF00085473EC44C00E147130505C03EC6EFF0D4
:102B00007F9F22C837440140B70708000C0813050F
:102B100004803ECC02CA231E0100EFF01FE785456A
:102B200013050480EFF07FEF05616FD0AFE2EFD2C5
:102B30008FDEB7440140AE8932890144938404801A
:102B4000634524014A856FD04FE093050004268534
:102B5000EFF09FEE7DD9B387890083850700268536
:102B60000504C205C181EFF0BFECD9BF1387818294
:102B70001C43938641AB3E95636BD500B75600204E
:102B80009386068063E5A60008C33E858280FD57D4
:102B9000EDBFB3C7A5008D8B3307C50081E78D4717
:102BA00063EDC700AA87637EE50894218507850544
:102BB000A38FD7FEE3EBE7FE828093763500AA87EA
:102BC00089CA942185078505A38FD7FE93F6370020
:102BD000C5BF9376C7FF138606FE63F0C70683A3BF
:102BE000050083A2450083AF850003AFC50083AE17
:102BF000050103AE450103A3850183A8C5019385A3
:102C0000450223A0770003A8C5FF23A2570023A4F1
:102C1000F70123A6E70123A8D70123AAC70123AC04
:102C2000670023AE17019387470223AE07FF75B7EE
:102C300090419107910523AEC7FEE3EBD7FEE3E693
:102C4000E7F6828039713EDA2ED232D436D63AD8BF
:102C500042DC46DE9387C18222CC804326CA06CE60
:102C6000AA8409C41C4C99E32285FD290C44541004
:102C70002686228536C6EF009013F2406244D24485
:102C800021618280011126CA4AC806CE22CC4EC6D6
:102C900052C4AA842E8901C51C4D91E3F1219C4C9C
:102CA000804499E32685C921971700009387476CD4
:102CB000631BF402C0405E24A18BB1C71C48A1C7AE
:102CC000FD59294A1C4483450900FD17B1E91CC47C
:102CD00063DD07062286A94526856920FD5763081E
:102CE000F502294535A0971700009387676A63149A
:102CF000F4008044C9B79717000093876765E31C09
:102D0000F4FAC0444DBFA2852685192A55D97D55B0
:102D1000F2406244D2444249B249224A056182806B
:102D20001CC4050963D70700184C63CAE700638811
:102D300045011C401387170018C08CA361B7228679
:102D400026850D20E31035F9D9B71C4013871700ED
:102D500018C0294798A371B79387C182AA85884371
:102D60006FF05FF2011122CC26CA4AC806CE4EC6C9
:102D7000AA842E89328401C51C4D91E3F52697174C
:102D800000009387E75E6317F406C0401C4C1CC428
:102D90005E24A18BC1C31C48B5CF1C480840937961
:102DA000F90F1379F90F1D8D5C486346F500A28574
:102DB0002685692C25E51C440505FD171CC41C400F
:102DC0001387170018C0238037015C486388A70069
:102DD0005E24858B81CBA9476316F900A2852685E1
:102DE000B5240DEDF24062444A85D2444249B249CD
:102DF0000561828097170000938787596314F40058
:102E0000804469B79717000093878754E310F4F85C
:102E1000C044ADBFA2852685212041D17D59D9B7B7
:102E200041119387C18226C2844322C44AC006C688
:102E30002A892E8489C49C4C99E3268535269717C8
:102E400000009387E752631BF402C0400317C400DD
:102E500093170701C18393F68700ADEA93F6070144
:102E600095EEA5472320F900136707045AA47D5562
:102E7000B2402244924402494101828097170000E7
:102E8000938707516314F4008044C9B79717000073
:102E90009387074CE31CF4FAC0444DBF918B9DC34C
:102EA0004C5889C9930744046384F5004A85292B4B
:102EB000232A04025E242322040093F7B7FD5EA4B4
:102EC0001C481CC05E2493E787005EA41C4899EB55
:102ED0005E241307002093F707286385E700A28587
:102EE0004A8591295E2413F717001DC35C482324EB
:102EF0000400B307F0401CCC1C480145B5FB831708
:102F0000C40013F707082DD793E707045EA485B71D
:102F1000898B014791E3584818C4F9BFDE25011198
:102F200022CC26CA06CE4AC84EC613F78700AA840A
:102F30002E8479EBD841634DE000B841634AE0004C
:102F40000145F2406244D2444249B249056182805F
:102F500058547DD703A904009396370123A0040099
:102F600063DB060670485E24918B99C75C401D8E1A
:102F70005C5899C33C401D8E5C540C50814626859C
:102F80008297FD575A24631DF5009440F54763E886
:102F9000D706B70740208507B3D7D700858BA5C3D1
:102FA0001C48232204001CC09317370163D8070074
:102FB000FD576314F5009C4091E368C84C5823A06A
:102FC0002401BDDD930744046384F5002685ED2EBE
:102FD000232A0402B5B70C50014685462685029780
:102FE000FD572A86E311F5F89C40B5DF75476385E8
:102FF000E70059476393E70423A0240191B71367BF
:1030000007045AA47D5535BF83A90501E38A09F257
:1030100003A905008D8B23A03501330939410147F0
:1030200091E3D84918C4E35D20F11C540C50CA86C2
:103030004E86268582976347A0005E2493E70704A7
:103040005EA4C9B7AA993309A940F1BF9C49A5C399
:10305000011122CC06CE2A8411C51C4D81E72EC653
:103060002122B2459717000093878730639CF500B3
:103070004C408397C5009DC722856244F24005619C
:103080006FF0DFE997170000938787306394F500AE
:103090000C44C5B7971700009387872BE39BF5FC7B
:1030A0004C44C1BFF2406244014505618280014544
:1030B0008280411122C406C62A844EA572A523200F
:1030C00005002322050023240500232205062328CA
:1030D0000500232A0500232C050021468145130500
:1030E000C505EFD0EF8797170000938787B25CD0B4
:1030F000971700009387A7B41CD4971700009387F5
:1031000087B85CD4971700009387E7BA00D01CD823
:10311000B24022444101828097050000938545F327
:1031200091AA411126C2130680069384F5FFB38449
:10313000C4024AC02E8922C406C6938544070D2EB8
:103140002A8401CD2320050023222501310508C44E
:10315000138684068145EFD0AF802285B240224499
:1031600092440249410182801C4DA5E7411106C6E7
:1031700022C497070000938767FA1CD593870183C1
:103180009C432324050423260504232805046314F3
:10319000F50085471CCD2A84352848C022851D2886
:1031A00008C42285052848C4484001469145EFF0EF
:1031B0005FF008440546A545EFF0BFEF48440946D7
:1031C000C945EFF01FEF85471CCCB24022444101B6
:1031D0008280828041119387018326C284434AC042
:1031E00006C69C4C22C42A8981E72685EFF0DFF7CA
:1031F000938484048044DC40FD1763D607009C4020
:10320000B9CF8440C5BF0317C40039E7C17785072C
:103210002322040623200400232204002324040084
:103220005CC423280400232A0400232C0400214624
:1032300081451305C405EFC0BFF2232A0402232CE5
:10324000040223240404232604042285B2402244D9
:1032500092440249410182801304840671BF914562
:103260004A85EFF01FEC88C049FDB1472320F900E3
:103270000144E1BF797122D44AD052CC56CA5AC80F
:103280005EC606D626D24ECE2A8AAE8A130485049E
:103290000149054BFD5B09ECB25022544A8592541A
:1032A0000259F249624AD24A424BB24B456182808E
:1032B000044483294400FD1963D409000040E1BFA0
:1032C000DE24637BFB008397E40063877701A68598
:1032D0005285829A3369A90093848406E9BF1971E3
:1032E000A6DAAE848395E500A2DC86DE328463DB59
:1032F0000500DE2423A0060093F7070885E793075F
:1033000000401DA0300836C6EF007020B246E342F0
:1033100005FE7247BD67F98F7977BA9793B71700A3
:103320009CC2F1BF930700041CC0F6506654D654EB
:10333000014509618280DE25011122CC06CE26CA14
:103340004AC8898B2E8489CF930774041CC01CC87B
:1033500085475CC8F2406244D2444249056182809C
:1033600074003000AA84EFF09FF7A2452A892685D1
:10337000012219E98317C40013F7072061FFF19BAD
:1033800093E727005EA4C9B797070000938707D982
:103390009CD45E2408C008C893E707085EA4A2472F
:1033A0005CC8B24781CF8315E4002685EF00D018B2
:1033B00011C55E24F19B93E717005EA45E24336978
:1033C000F9002316240179B7DDC183A7C5FF411198
:1033D00022C406C626C21384C5FF63D307003E94E9
:1033E000AA84EF00301C938741889C4381EF2322FD
:1033F000040023A281882244B240268592444101E0
:103400006F00701A637EF40014403307D400639693
:10341000E7009843DC43369718C05CC0D9BFBA8731
:10342000D84319C3E37DE4FE94433386D700631F7A
:1034300086001040B29694C33386D700E31DC7FAC6
:1034400010435843B29694C3D8C375B76375C4008C
:10345000B1479CC04DB71040B306C4006316D700F7
:1034600014435843B29614C058C0C0C369B7828091
:10347000011126CA93843500F19806CE22CC4AC8A1
:103480004EC6A104B14763F3F404B14463E2B4044B
:103490002A89EF0030119387418898433A8439E0B4
:1034A000938781889C4391E781454A85252F23A4F2
:1034B000A188A6854A853D27FD5963193507B1477F
:1034C0002320F9004A85EF00100E29A0E3D004FC68
:1034D000B1471CC10145F2406244D2444249B2495D
:1034E000056182801C40858F63CF0702AD4663F67D
:1034F000F6001CC03E9404C031A05C4063138702F8
:1035000023A2F1884A85EF00100A1305B40093073F
:10351000440061993307F5405DDF3A94898F1CC000
:103520005DBF5CC3C5B72287404095BF130435001B
:103530007198E30285FCB305A4404A856525E31C28
:1035400035FBB5BF1C46FD171CC663DA0700184ED5
:1035500063C5E700A9476394F5006FF0BF801C4284
:103560002E851387170018C28CA38280011122CCEC
:1035700026CA4AC84EC652C406CE2A89AE893284AB
:10358000B304D6007D5A63149400014509A80C20A9
:103590004E864A85EFF01FFB0504E31645FFF24017
:1035A0006244D2444249B249224A0561828035715F
:1035B00022CD26CB4AC94EC706CF52C556C35AC1E3
:1035C000DEDEE2DCE6DAAA89AE843289368409C519
:1035D0001C4D99E3EFF05FB997170000938747D927
:1035E0006398F40C83A44900DE24A18BE5C79C48B2
:1035F000F5C393070002A304F1029307000302D26C
:103600002305F10222C6930B5002971A0000938AF9
:103610002ADA054C294B4A841C2099C3639F770DF5
:10362000B30C2441638E0C00E6864A86A6854E853F
:10363000EFF0DFF3FD57630FF51C9256E69636D296
:103640001C206389071CFD571309140002C802CE11
:103650003ECA02CCA309010482D483450900154661
:1036600056852D2713041900C24751E913F70701A6
:1036700009C713070002A309E10413F7870009C76C
:103680001307B002A309E104834609001307A0024F
:10369000638FE606F2474A84814625461820930543
:1036A0001400130707FD6377E60AB5CA3ECE85A866
:1036B000971700009387C7CD6395F40083A4890012
:1036C00025B7971700009387A7C8E39FF4F083A45A
:1036D000C90019BFA6854E85EFF08FF419D97D5525
:1036E000FA406A44DA444A49BA492A4A9A4A0A4B91
:1036F000F65B665CD65C0D618280050431BF3305E4
:1037000055413315AC00C98F3EC82289B9B732473D
:1037100093064700184336C6634707023ACE18207F
:103720009307E002631DF70418309307A002631BA0
:10373000F702B2470904138747009C433AC663C1A6
:1037400007023ECA2DA83307E04093E727003ACE90
:103750003EC8F1B7B387670385462E84BA973DBF4D
:10376000FD57C5B7050402CA814681472546182082
:1037700093051400130707FD6374E606F9F20C20A5
:103780000D4617150000130525C3092511CD971700
:103790000000938767C21D8D93070004B397A700AD
:1037A000424505045D8D2AC80C20194617150000F6
:1037B0001305C5C0130914002304B102C12B35C180
:1037C00097D7FFFF9387078495E74247B247137760
:1037D000071009CF91073EC69257D2973ED225BD1A
:1037E000B387670385462E84BA9751B79D07E19B3F
:1037F000A107D5B7780097060000938666D726867E
:103800000C084E8597000000E7000000FD572A8A4B
:10381000E314F5FCDE2493F70704E39207EC12555A
:10382000C1B5780097060000938686D426860C08DA
:103830004E85012AE1BF797156CA9C49BA8A9845DA
:1038400022D426D24ECE52CC06D64AD05AC85EC614
:10385000AA892E84B284368A63D3E700BA879CC0D3
:103860000347340419C385079CC01C4093F7070223
:1038700081C79C4089079CC0032904001379690013
:10388000631A0900130B9401FD5B5C449840998F07
:10389000634CF9041C408346340493F70702B336A3
:1038A000D000A5EB13063404D2854E85829AFD57CD
:1038B0006303F5041C4011469840998B544481449D
:1038C0006397C700B384E64063D3040081441C447B
:1038D00018486354F700998FBE94014969047D5BD1
:1038E00063982405014509A885465A86D2854E85E8
:1038F000829A631E75017D55B2502254925402592A
:10390000F249624AD24A424BB24B45618280050974
:10391000ADBF3307D40013060003A301C704034758
:10392000540493871600A2978906A381E7049DBFDC
:1039300085462286D2854E85829AE30E65FB05096F
:1039400045B7797122D426D24AD04ECE06D652CC73
:1039500056CA5AC8B689942D930790063289AA840C
:103960002E8413863504638DF60263E2D70693072F
:1039700080056386F61863EDD700638E06209307F3
:103980003004638EF60A930A24042301D404C9A0E8
:10399000930730066385F60A93074006E395F6FE23
:1039A0001C40084393F6070893054500C5C61C4113
:1039B0000CC363D807001307D002B307F040A3017C
:1039C000E404971600009386E69F294765A89307AD
:1039D00000076382F61663E5D7029307E006638962
:1039E000F6189307F006E390F6FA0C401C4313F820
:1039F0000508138547006307080608C39C4385A88C
:103A000093075007E383F6FE930780076389F61256
:103A100093073007E399F6F61C43D041814593861E
:103A2000470014C383AA070056858D2601C53305B8
:103A3000554148C05C401CC8A301040461A81C4354
:103A4000930A2404938647009C4314C32301F4047F
:103A50008547D5B793F607041C410CC3B9DAC207F2
:103A6000C18781BF93F5050408C3C9D99E231307F5
:103A7000F0066387E60E971600009386A694294702
:103A8000A30104044C400CC463C5050008406D99B3
:103A900008C099E3B28A89CDB28AB3F5E702FD1A6C
:103AA000B6958C212380BA00B3D5E70263F0E70C0A
:103AB000A147631EF7001C40858B91CB58401C48E2
:103AC00063C7E70093070003A38FFAFEFD1A3306CE
:103AD000564110C84E87CA867000A2852685EFF031
:103AE0009FD57D5A631D450B7D55B250225492548B
:103AF0000259F249624AD24A424B45618280A3820E
:103B0000D504971600009386E68B0C40084313F803
:103B100005081C411105630D080208C313F71500C1
:103B200001C793E505020CC04147B9FB0C4093F572
:103B3000F5FD0CC0B1B79C4193E707029CC1930708
:103B40008007A302F404971600009386E68875BFE9
:103B500013F8050408C3E30308FCC207C1837DBF53
:103B60009716000093860686214719BFAE8735B7A2
:103B700094411C43CC4913F806081385470063069B
:103B8000080008C39C438CC339A008C393F60604FD
:103B90009C43F5DA8EA323280400B28A25BF14487B
:103BA0005686CA8526858299E30045F51C40898B97
:103BB0008DE7B2474844E35AF5F23E853DB7854666
:103BC0005686CA8526858299E30065F3050A5C441A
:103BD0003247998FE345FAFEE9BF014A930A9401FF
:103BE0007D5BF5B7411122C42A842E8523A801AA42
:103BF00006C6EFE0BFF7FD576317F500938701ABEB
:103C00009C4391C31CC0B2402244410182804111B7
:103C100022C42E848395E50006C6792263490500F7
:103C20007C48AA977CC8B2402244410182805E242D
:103C30007D777D17F98F5EA4FDB7DE25011122CCBB
:103C400026CA4AC84EC606CE93F70710AA842E8409
:103C50003289B68991C78395E500894601460922D4
:103C60005E247D777D17F98F5EA48315E40062449E
:103C7000F240CE864A86B24942492685D244056141
:103C800025A8411122C42E848395E50006C6C928C3
:103C9000FD575A24631AF500FD77FD17F98F5EA4CE
:103CA000B2402244410182808567D98F5EA468C8F2
:103CB000C5BF8395E50005A8411122C42A842E853D
:103CC000B285368623A801AA06C6EFE05FE6FD5757
:103CD0006317F500938701AB9C4391C31CC0B240AE
:103CE000224441018280411122C42A842E8523A8C6
:103CF00001AA06C6C520FD576317F500938701ABDF
:103D00009C4391C31CC0B2402244410182804111B6
:103D100022C42A842E85B28523A801AA06C6C920FA
:103D2000FD576317F500938701AB9C4391C31CC0FB
:103D3000B240224441018280411122C42A842E854E
:103D400023A801AA06C65D20FD576317F5009387D7
:103D500001AB9C4391C31CC0B2402244410182800C
:103D6000411122C42A842E85B285368623A801AA51
:103D700006C65920FD576317F500938701AB9C4396
:103D800091C31CC0B24022444101828093F5F50FDB
:103D90002A966314C500014582801C21E38EB7FE7C
:103DA0000505C5BF82808280411122C42A842E85E8
:103DB000B285368623A801AA06C6A920FD57631737
:103DC000F500938701AB9C4391C31CC0B2402244D1
:103DD000410182809307800523A8F1AA7D55828046
:103DE0009307800523A8F1AA7D558280930780055B
:103DF00023A8F1AA014582809307800523A8F1AA90
:103E00007D5582809307800523A8F1AA7D55828085
:103E1000720E0000BA0E0000D00E0000860E0000E8
:103E2000860E0000860E0000FC0E0000860E0000CC
:103E3000860E0000FC0E0000F60E0000540F00007D
:103E40009A0F0000DE0F0000860E0000F40F000045
:103E5000860E0000860E00002E100000860E000068
:103E6000860E0000860E0000860E0000860E000002
:103E7000860E0000860E0000860E0000860E0000F2
:103E8000860E0000860E0000860E00001A0F00004D
:103E9000340F00009C100000621100004811000067
:103EA00036130000361300006012000036130000C5
:103EB0007C1200003613000036130000DE120000F2
:103EC000F61000009A12000036130000E8120000FD
:103ED00026130000AE120000C812000070646F5F6D
:103EE000696E646578206572726F72210D00000042
:103EF000526571756573743A0D0A43757272656E19
:103F0000743A2564206D410D0A566F6C74616765C3
:103F10003A2564206D560D0A0000000043432564D5
:103F20002053524320436F6E6E6563742025640DE9
:103F30000A000000434325642053524320436F6E20
:103F40006E6563740D0A0000434325642053494E97
:103F50004B20436F6E6E6563740D0A004469736392
:103F60006F6E6E6563740D0053656E6420536F75DC
:103F70007263652043617020537563636573736674
:103F8000756C6C790D0000004163636570740D0001
:103F900050532072656164790D0000005343383737
:103FA00032362054696D65204F7574202050440DC1
:103FB0000000000050444F3A25640D0A43757272A8
:103FC000656E743A2564206D410D0A566F6C7461FC
:103FD00067653A2564206D560D0A000048616E64DD
:103FE0006C652052657175657374202025640D0A17
:103FF000000000002020526571756573743A0D0A47
:10400000202050444F5F4964783A25640D0A00002F
:10401000202043757272656E743A2564206D410DDF
:104020000A000000537563636573730D00000000A0
:10403000556E737570706F7274656420436F6D6D2B
:10404000616E640D0000000049465F52585F5245A2
:104050005345540D000000007064206461746120B9
:104060006572726F72202564202025640D0A00009D
:1040700041494F2049442053656E642025303278F1
:10408000202025303278202025303278202025301D
:1040900032780D0A0000000050442056616C7665AD
:1040A00020546573742053656E640D0053797374E6
:1040B000656D436C6B3A25640D0A000043686970B6
:1040C00049443A253038780D0A00000056342E3025
:1040D0002E330D0050170000641700007E170000FB
:1040E000E6170000081800003818000053657474C3
:1040F000696E67732056627573202564206D5620A3
:10410000737563636573730D0A0000004F75742047
:1041100056627573202564206D5620737563636540
:1041200073730D0A000000002564202000000000C9
:1041300044495320444344432031206F6B200D00F9
:1041400056627573203D20256420206572726F725F
:1041500020203C35560D0A0056627573203D2025FF
:104160006420206572726F7220203E3132560D0A33
:10417000000000007363383732362E5365745F4F8A
:1041800075745F43757272656E74203D2025640DF1
:104190000A00000056627573206F66660D0000000D
:1041A000736574203556207363383732360D00003E
:1041B000534E4B2056427573206572726F720D001C
:1041C000541D0000D01D0000D81D0000E01D00009F
:1041D000E81D0000FE1D0000101E00002A1E000049
:1041E0002A1E0000221E0000781E0000B41E0000DF
:1041F000C21E0000401F0000D01E0000401F000033
:10420000E41E0000F21E0000401F0000001F00001E
:10421000241F0000736574206F6E202564202564C0
:104220000D0A00006D795F7370692E436F6E7472B2
:104230006F6C5F446174615B305D203D2025640DCF
:104240000A0000007365742044494F5F5374617421
:104250007573203D2025640D0A00000073706920ED
:104260007365742076616C7665206F70656E0D00E5
:10427000737069207365742076616C766520636C59
:104280006F73650D00000000737069207365742002
:1042900076616C766520636865636B0D00000000D5
:1042A000737069207365745F50445F535441545573
:1042B000535F5352430D000073706920676574208B
:1042C0004750494F2025642020253032780D0A00C0
:1042D0007370692067657420494E464F202564201D
:1042E00020253032780D0A007370692067657420CC
:1042F0005253534920256420202530327820253020
:104300003278202530327820253032780D0A0000AE
:1043100041494F2049442025303278202025303231
:10432000782020253032782020253032780D0A0080
:1043300025303278202000007072696E746620612A
:10434000646472202564202020200000000000000A
:10435000000000000000000000000000000000005D
:10436000000000000000000000000000000000004D
:10437000000000000000000000000000000000003D
:10438000000000000000000000000000000000002D
:10439000000000000000000000000000000000001D
:1043A000000000000000000000000000232D302B62
:1043B00020000000686C4C006566674546470000B9
:1043C000303132333435363738394142434445464B
:1043D000000000003031323334353637383961620D
:0843E000636465660000000043
:1043E80018806300000000000000010000000703BF
:1043F8000000000000000003001200002C91013EA4
:10440800DED0023EA7C0033E0102030405060708EA
:10441800010203040506070801020304050607084C
:104428000102030405060708000000006C430000B1
:104438008C4300004C430000000000000000000016
:104448000000000000000000000000000000000064
:104458000000000000000000000000000000000054
:104468000000000000000000000000000000000044
:104478000000000000000000000000000000000034
:104488000000000000000000649001362C91013EFD
:10449800040000000680160000000000A700FF00CE
:1044A800006CDC024444444444444444444444448A
:1044B8005C030020480000204800002000000000A5
:00000001FF
